{
  "_format": "hh-sol-artifact-1",
  "contractName": "LoanRequest",
  "sourceName": "contracts/LoanRequest.sol",
  "abi": [
    {
      "inputs": [
        {
          "internalType": "address",
          "name": "_vouchPool",
          "type": "address"
        },
        {
          "internalType": "address",
          "name": "_reputationToken",
          "type": "address"
        }
      ],
      "stateMutability": "nonpayable",
      "type": "constructor"
    },
    {
      "anonymous": false,
      "inputs": [
        {
          "indexed": true,
          "internalType": "uint256",
          "name": "loanId",
          "type": "uint256"
        },
        {
          "indexed": true,
          "internalType": "address",
          "name": "lender",
          "type": "address"
        },
        {
          "indexed": false,
          "internalType": "uint256",
          "name": "disputeDeadline",
          "type": "uint256"
        }
      ],
      "name": "DefaultClaimed",
      "type": "event"
    },
    {
      "anonymous": false,
      "inputs": [
        {
          "indexed": true,
          "internalType": "uint256",
          "name": "loanId",
          "type": "uint256"
        },
        {
          "indexed": true,
          "internalType": "address",
          "name": "borrower",
          "type": "address"
        },
        {
          "indexed": false,
          "internalType": "bytes32",
          "name": "reasonHash",
          "type": "bytes32"
        }
      ],
      "name": "DefaultDisputed",
      "type": "event"
    },
    {
      "anonymous": false,
      "inputs": [
        {
          "indexed": true,
          "internalType": "uint256",
          "name": "loanId",
          "type": "uint256"
        },
        {
          "indexed": false,
          "internalType": "uint256",
          "name": "slashedAmount",
          "type": "uint256"
        }
      ],
      "name": "DefaultFinalized",
      "type": "event"
    },
    {
      "anonymous": false,
      "inputs": [
        {
          "indexed": true,
          "internalType": "uint256",
          "name": "loanId",
          "type": "uint256"
        },
        {
          "indexed": true,
          "internalType": "address",
          "name": "borrower",
          "type": "address"
        },
        {
          "indexed": false,
          "internalType": "uint256",
          "name": "amount",
          "type": "uint256"
        }
      ],
      "name": "LoanCreated",
      "type": "event"
    },
    {
      "anonymous": false,
      "inputs": [
        {
          "indexed": true,
          "internalType": "uint256",
          "name": "loanId",
          "type": "uint256"
        }
      ],
      "name": "LoanFullyVouched",
      "type": "event"
    },
    {
      "anonymous": false,
      "inputs": [
        {
          "indexed": true,
          "internalType": "uint256",
          "name": "loanId",
          "type": "uint256"
        },
        {
          "indexed": true,
          "internalType": "address",
          "name": "lender",
          "type": "address"
        },
        {
          "indexed": false,
          "internalType": "uint256",
          "name": "amount",
          "type": "uint256"
        }
      ],
      "name": "LoanFunded",
      "type": "event"
    },
    {
      "anonymous": false,
      "inputs": [
        {
          "indexed": true,
          "internalType": "uint256",
          "name": "loanId",
          "type": "uint256"
        },
        {
          "indexed": true,
          "internalType": "address",
          "name": "borrower",
          "type": "address"
        },
        {
          "indexed": false,
          "internalType": "uint256",
          "name": "amount",
          "type": "uint256"
        }
      ],
      "name": "LoanRepaid",
      "type": "event"
    },
    {
      "anonymous": false,
      "inputs": [
        {
          "indexed": true,
          "internalType": "address",
          "name": "previousOwner",
          "type": "address"
        },
        {
          "indexed": true,
          "internalType": "address",
          "name": "newOwner",
          "type": "address"
        }
      ],
      "name": "OwnershipTransferred",
      "type": "event"
    },
    {
      "inputs": [
        {
          "internalType": "address",
          "name": "",
          "type": "address"
        },
        {
          "internalType": "uint256",
          "name": "",
          "type": "uint256"
        }
      ],
      "name": "borrowerLoans",
      "outputs": [
        {
          "internalType": "uint256",
          "name": "",
          "type": "uint256"
        }
      ],
      "stateMutability": "view",
      "type": "function"
    },
    {
      "inputs": [
        {
          "internalType": "uint256",
          "name": "loanId",
          "type": "uint256"
        }
      ],
      "name": "checkAndActivate",
      "outputs": [],
      "stateMutability": "nonpayable",
      "type": "function"
    },
    {
      "inputs": [
        {
          "internalType": "uint256",
          "name": "loanId",
          "type": "uint256"
        }
      ],
      "name": "claimDefault",
      "outputs": [],
      "stateMutability": "nonpayable",
      "type": "function"
    },
    {
      "inputs": [
        {
          "internalType": "uint256",
          "name": "amount",
          "type": "uint256"
        },
        {
          "internalType": "uint256",
          "name": "termDays",
          "type": "uint256"
        },
        {
          "internalType": "uint256",
          "name": "interestBps",
          "type": "uint256"
        },
        {
          "internalType": "string",
          "name": "purpose",
          "type": "string"
        },
        {
          "internalType": "address[]",
          "name": "voucherAddresses",
          "type": "address[]"
        }
      ],
      "name": "createLoanRequest",
      "outputs": [
        {
          "internalType": "uint256",
          "name": "",
          "type": "uint256"
        }
      ],
      "stateMutability": "nonpayable",
      "type": "function"
    },
    {
      "inputs": [
        {
          "internalType": "uint256",
          "name": "loanId",
          "type": "uint256"
        },
        {
          "internalType": "bytes32",
          "name": "reasonHash",
          "type": "bytes32"
        }
      ],
      "name": "disputeDefault",
      "outputs": [],
      "stateMutability": "nonpayable",
      "type": "function"
    },
    {
      "inputs": [
        {
          "internalType": "uint256",
          "name": "loanId",
          "type": "uint256"
        }
      ],
      "name": "disputeDefault",
      "outputs": [],
      "stateMutability": "nonpayable",
      "type": "function"
    },
    {
      "inputs": [
        {
          "internalType": "uint256",
          "name": "",
          "type": "uint256"
        }
      ],
      "name": "disputeReasonHashes",
      "outputs": [
        {
          "internalType": "bytes32",
          "name": "",
          "type": "bytes32"
        }
      ],
      "stateMutability": "view",
      "type": "function"
    },
    {
      "inputs": [
        {
          "internalType": "uint256",
          "name": "loanId",
          "type": "uint256"
        }
      ],
      "name": "finalizeDefault",
      "outputs": [],
      "stateMutability": "nonpayable",
      "type": "function"
    },
    {
      "inputs": [
        {
          "internalType": "uint256",
          "name": "loanId",
          "type": "uint256"
        }
      ],
      "name": "fundLoan",
      "outputs": [],
      "stateMutability": "payable",
      "type": "function"
    },
    {
      "inputs": [
        {
          "internalType": "address",
          "name": "borrower",
          "type": "address"
        }
      ],
      "name": "getBorrowerLoans",
      "outputs": [
        {
          "internalType": "uint256[]",
          "name": "",
          "type": "uint256[]"
        }
      ],
      "stateMutability": "view",
      "type": "function"
    },
    {
      "inputs": [
        {
          "internalType": "address",
          "name": "lender",
          "type": "address"
        }
      ],
      "name": "getLenderLoans",
      "outputs": [
        {
          "internalType": "uint256[]",
          "name": "",
          "type": "uint256[]"
        }
      ],
      "stateMutability": "view",
      "type": "function"
    },
    {
      "inputs": [
        {
          "internalType": "uint256",
          "name": "loanId",
          "type": "uint256"
        }
      ],
      "name": "getLoan",
      "outputs": [
        {
          "components": [
            {
              "internalType": "uint256",
              "name": "id",
              "type": "uint256"
            },
            {
              "internalType": "address",
              "name": "borrower",
              "type": "address"
            },
            {
              "internalType": "address",
              "name": "lender",
              "type": "address"
            },
            {
              "internalType": "uint256",
              "name": "amount",
              "type": "uint256"
            },
            {
              "internalType": "uint256",
              "name": "termDays",
              "type": "uint256"
            },
            {
              "internalType": "uint256",
              "name": "interestBps",
              "type": "uint256"
            },
            {
              "internalType": "uint256",
              "name": "createdAt",
              "type": "uint256"
            },
            {
              "internalType": "uint256",
              "name": "fundedAt",
              "type": "uint256"
            },
            {
              "internalType": "uint256",
              "name": "dueTimestamp",
              "type": "uint256"
            },
            {
              "internalType": "uint256",
              "name": "disputeDeadline",
              "type": "uint256"
            },
            {
              "internalType": "uint8",
              "name": "state",
              "type": "uint8"
            },
            {
              "internalType": "string",
              "name": "purpose",
              "type": "string"
            },
            {
              "internalType": "address[]",
              "name": "vouchers",
              "type": "address[]"
            }
          ],
          "internalType": "struct LoanRequest.Loan",
          "name": "",
          "type": "tuple"
        }
      ],
      "stateMutability": "view",
      "type": "function"
    },
    {
      "inputs": [
        {
          "internalType": "uint256",
          "name": "loanId",
          "type": "uint256"
        }
      ],
      "name": "getRepaymentAmount",
      "outputs": [
        {
          "internalType": "uint256",
          "name": "",
          "type": "uint256"
        }
      ],
      "stateMutability": "view",
      "type": "function"
    },
    {
      "inputs": [],
      "name": "getTotalLoanCount",
      "outputs": [
        {
          "internalType": "uint256",
          "name": "",
          "type": "uint256"
        }
      ],
      "stateMutability": "view",
      "type": "function"
    },
    {
      "inputs": [
        {
          "internalType": "address",
          "name": "",
          "type": "address"
        },
        {
          "internalType": "uint256",
          "name": "",
          "type": "uint256"
        }
      ],
      "name": "lenderLoans",
      "outputs": [
        {
          "internalType": "uint256",
          "name": "",
          "type": "uint256"
        }
      ],
      "stateMutability": "view",
      "type": "function"
    },
    {
      "inputs": [
        {
          "internalType": "uint256",
          "name": "",
          "type": "uint256"
        }
      ],
      "name": "loans",
      "outputs": [
        {
          "internalType": "uint256",
          "name": "id",
          "type": "uint256"
        },
        {
          "internalType": "address",
          "name": "borrower",
          "type": "address"
        },
        {
          "internalType": "address",
          "name": "lender",
          "type": "address"
        },
        {
          "internalType": "uint256",
          "name": "amount",
          "type": "uint256"
        },
        {
          "internalType": "uint256",
          "name": "termDays",
          "type": "uint256"
        },
        {
          "internalType": "uint256",
          "name": "interestBps",
          "type": "uint256"
        },
        {
          "internalType": "uint256",
          "name": "createdAt",
          "type": "uint256"
        },
        {
          "internalType": "uint256",
          "name": "fundedAt",
          "type": "uint256"
        },
        {
          "internalType": "uint256",
          "name": "dueTimestamp",
          "type": "uint256"
        },
        {
          "internalType": "uint256",
          "name": "disputeDeadline",
          "type": "uint256"
        },
        {
          "internalType": "uint8",
          "name": "state",
          "type": "uint8"
        },
        {
          "internalType": "string",
          "name": "purpose",
          "type": "string"
        }
      ],
      "stateMutability": "view",
      "type": "function"
    },
    {
      "inputs": [],
      "name": "owner",
      "outputs": [
        {
          "internalType": "address",
          "name": "",
          "type": "address"
        }
      ],
      "stateMutability": "view",
      "type": "function"
    },
    {
      "inputs": [],
      "name": "renounceOwnership",
      "outputs": [],
      "stateMutability": "nonpayable",
      "type": "function"
    },
    {
      "inputs": [
        {
          "internalType": "uint256",
          "name": "loanId",
          "type": "uint256"
        }
      ],
      "name": "repayLoan",
      "outputs": [],
      "stateMutability": "payable",
      "type": "function"
    },
    {
      "inputs": [],
      "name": "reputationToken",
      "outputs": [
        {
          "internalType": "contract IReputationToken",
          "name": "",
          "type": "address"
        }
      ],
      "stateMutability": "view",
      "type": "function"
    },
    {
      "inputs": [
        {
          "internalType": "address",
          "name": "newOwner",
          "type": "address"
        }
      ],
      "name": "transferOwnership",
      "outputs": [],
      "stateMutability": "nonpayable",
      "type": "function"
    },
    {
      "inputs": [],
      "name": "vouchPool",
      "outputs": [
        {
          "internalType": "contract IVouchPool",
          "name": "",
          "type": "address"
        }
      ],
      "stateMutability": "view",
      "type": "function"
    }
  ],
  "bytecode": "0x60806040523480156200001157600080fd5b50604051620048a0380380620048a0833981810160405281019062000037919062000217565b620000576200004b620000e160201b60201c565b620000e960201b60201c565b81600160006101000a81548173ffffffffffffffffffffffffffffffffffffffff021916908373ffffffffffffffffffffffffffffffffffffffff16021790555080600260006101000a81548173ffffffffffffffffffffffffffffffffffffffff021916908373ffffffffffffffffffffffffffffffffffffffff16021790555050506200025e565b600033905090565b60008060009054906101000a900473ffffffffffffffffffffffffffffffffffffffff169050816000806101000a81548173ffffffffffffffffffffffffffffffffffffffff021916908373ffffffffffffffffffffffffffffffffffffffff1602179055508173ffffffffffffffffffffffffffffffffffffffff168173ffffffffffffffffffffffffffffffffffffffff167f8be0079c531659141344cd1fd0a4f28419497f9722a3daafe3b4186f6b6457e060405160405180910390a35050565b600080fd5b600073ffffffffffffffffffffffffffffffffffffffff82169050919050565b6000620001df82620001b2565b9050919050565b620001f181620001d2565b8114620001fd57600080fd5b50565b6000815190506200021181620001e6565b92915050565b60008060408385031215620002315762000230620001ad565b5b6000620002418582860162000200565b9250506020620002548582860162000200565b9150509250929050565b614632806200026e6000396000f3fe6080604052600436106101355760003560e01c8063bd9af0cc116100ab578063e3ed19021161006f578063e3ed190214610427578063eee8b7ff14610464578063eeeb0c17146104a1578063f2fde38b146104de578063facd66c714610507578063fbafd8c31461053057610135565b8063bd9af0cc14610327578063be1c02c014610350578063c84d471514610379578063cfd1ca26146103b6578063e1ec3c68146103df57610135565b8063504006ca116100fd578063504006ca146102475780635117613614610284578063715018a6146102ad578063846b909a146102c45780638da5cb5b146102e0578063ab7b1c891461030b57610135565b806312b9d5211461013a578063160d96b5146101775780632210532b146101a2578063275bbe9b146101df5780633cdb72f11461020a575b600080fd5b34801561014657600080fd5b50610161600480360381019061015c9190612b56565b61055b565b60405161016e9190612c21565b60405180910390f35b34801561018357600080fd5b5061018c610d2c565b6040516101999190612c21565b60405180910390f35b3480156101ae57600080fd5b506101c960048036038101906101c49190612c3c565b610d36565b6040516101d69190612c21565b60405180910390f35b3480156101eb57600080fd5b506101f4610fd1565b6040516102019190612ce8565b60405180910390f35b34801561021657600080fd5b50610231600480360381019061022c9190612d41565b610ff7565b60405161023e9190612c21565b60405180910390f35b34801561025357600080fd5b5061026e60048036038101906102699190612c3c565b611028565b60405161027b919061301a565b60405180910390f35b34801561029057600080fd5b506102ab60048036038101906102a69190612c3c565b61128f565b005b3480156102b957600080fd5b506102c261151e565b005b6102de60048036038101906102d99190612c3c565b611532565b005b3480156102ec57600080fd5b506102f561194a565b604051610302919061304b565b60405180910390f35b61032560048036038101906103209190612c3c565b611973565b005b34801561033357600080fd5b5061034e6004803603810190610349919061309c565b611f5f565b005b34801561035c57600080fd5b5061037760048036038101906103729190612c3c565b611f6d565b005b34801561038557600080fd5b506103a0600480360381019061039b9190612c3c565b611f7d565b6040516103ad91906130eb565b60405180910390f35b3480156103c257600080fd5b506103dd60048036038101906103d89190612c3c565b611f95565b005b3480156103eb57600080fd5b5061040660048036038101906104019190612c3c565b6120f4565b60405161041e9c9b9a9998979695949392919061315f565b60405180910390f35b34801561043357600080fd5b5061044e60048036038101906104499190612d41565b612229565b60405161045b9190612c21565b60405180910390f35b34801561047057600080fd5b5061048b60048036038101906104869190613220565b61225a565b60405161049891906132fc565b60405180910390f35b3480156104ad57600080fd5b506104c860048036038101906104c39190613220565b6122f1565b6040516104d591906132fc565b60405180910390f35b3480156104ea57600080fd5b5061050560048036038101906105009190613220565b612388565b005b34801561051357600080fd5b5061052e60048036038101906105299190612c3c565b61240b565b005b34801561053c57600080fd5b506105456125dd565b604051610552919061333f565b60405180910390f35b600080881161059f576040517f08c379a0000000000000000000000000000000000000000000000000000000008152600401610596906133a6565b60405180910390fd5b600187101580156105b2575061016d8711155b6105f1576040517f08c379a00000000000000000000000000000000000000000000000000000000081526004016105e890613412565b60405180910390fd5b6064861015801561060457506113888611155b610643576040517f08c379a000000000000000000000000000000000000000000000000000000000815260040161063a9061347e565b60405180910390fd5b6002838390501015801561065b575060038383905011155b61069a576040517f08c379a0000000000000000000000000000000000000000000000000000000008152600401610691906134ea565b60405180910390fd5b6000600260009054906101000a900473ffffffffffffffffffffffffffffffffffffffff1673ffffffffffffffffffffffffffffffffffffffff166354cc5c1c336040518263ffffffff1660e01b81526004016106f7919061304b565b602060405180830381865afa158015610714573d6000803e3d6000fd5b505050506040513d601f19601f82011682018060405250810190610738919061351f565b90508089111561077d576040517f08c379a000000000000000000000000000000000000000000000000000000000815260040161077490613598565b60405180910390fd5b60005b848490508110156108c9573373ffffffffffffffffffffffffffffffffffffffff168585838181106107b5576107b46135b8565b5b90506020020160208101906107ca9190613220565b73ffffffffffffffffffffffffffffffffffffffff1603610820576040517f08c379a000000000000000000000000000000000000000000000000000000000815260040161081790613633565b60405180910390fd5b600073ffffffffffffffffffffffffffffffffffffffff1685858381811061084b5761084a6135b8565b5b90506020020160208101906108609190613220565b73ffffffffffffffffffffffffffffffffffffffff16036108b6576040517f08c379a00000000000000000000000000000000000000000000000000000000081526004016108ad9061369f565b60405180910390fd5b80806108c1906136ee565b915050610780565b50600360008154809291906108dd906136ee565b919050555060006003549050604051806101a001604052808281526020013373ffffffffffffffffffffffffffffffffffffffff168152602001600073ffffffffffffffffffffffffffffffffffffffff1681526020018b81526020018a8152602001898152602001428152602001600081526020016000815260200160008152602001600060ff16815260200188888080601f016020809104026020016040519081016040528093929190818152602001838380828437600081840152601f19601f820116905080830192505050505050508152602001868680806020026020016040519081016040528093929190818152602001838360200280828437600081840152601f19601f82011690508083019250505050505050815250600460008381526020019081526020016000206000820151816000015560208201518160010160006101000a81548173ffffffffffffffffffffffffffffffffffffffff021916908373ffffffffffffffffffffffffffffffffffffffff16021790555060408201518160020160006101000a81548173ffffffffffffffffffffffffffffffffffffffff021916908373ffffffffffffffffffffffffffffffffffffffff160217905550606082015181600301556080820151816004015560a0820151816005015560c0820151816006015560e082015181600701556101008201518160080155610120820151816009015561014082015181600a0160006101000a81548160ff021916908360ff16021790555061016082015181600b019081610b259190613967565b5061018082015181600c019080519060200190610b4392919061291d565b50905050600560003373ffffffffffffffffffffffffffffffffffffffff1673ffffffffffffffffffffffffffffffffffffffff168152602001908152602001600020819080600181540180825580915050600190039060005260206000200160009091909190915055600260009054906101000a900473ffffffffffffffffffffffffffffffffffffffff1673ffffffffffffffffffffffffffffffffffffffff16630f5c12d3336040518263ffffffff1660e01b8152600401610c08919061304b565b600060405180830381600087803b158015610c2257600080fd5b505af1158015610c36573d6000803e3d6000fd5b50505050600160009054906101000a900473ffffffffffffffffffffffffffffffffffffffff1673ffffffffffffffffffffffffffffffffffffffff1663da8a35a2828c88886040518563ffffffff1660e01b8152600401610c9b9493929190613ad5565b600060405180830381600087803b158015610cb557600080fd5b505af1158015610cc9573d6000803e3d6000fd5b505050503373ffffffffffffffffffffffffffffffffffffffff16817f8910ba13a55695f056e224bbbc6b65d866b12a8c2fbdf387fb853a1cca298cd78c604051610d149190612c21565b60405180910390a38092505050979650505050505050565b6000600354905090565b60008060046000848152602001908152602001600020604051806101a0016040529081600082015481526020016001820160009054906101000a900473ffffffffffffffffffffffffffffffffffffffff1673ffffffffffffffffffffffffffffffffffffffff1673ffffffffffffffffffffffffffffffffffffffff1681526020016002820160009054906101000a900473ffffffffffffffffffffffffffffffffffffffff1673ffffffffffffffffffffffffffffffffffffffff1673ffffffffffffffffffffffffffffffffffffffff16815260200160038201548152602001600482015481526020016005820154815260200160068201548152602001600782015481526020016008820154815260200160098201548152602001600a820160009054906101000a900460ff1660ff1660ff168152602001600b82018054610e8190613794565b80601f0160208091040260200160405190810160405280929190818152602001828054610ead90613794565b8015610efa5780601f10610ecf57610100808354040283529160200191610efa565b820191906000526020600020905b815481529060010190602001808311610edd57829003601f168201915b50505050508152602001600c8201805480602002602001604051908101604052809291908181526020018280548015610f8857602002820191906000526020600020905b8160009054906101000a900473ffffffffffffffffffffffffffffffffffffffff1673ffffffffffffffffffffffffffffffffffffffff1681526020019060010190808311610f3e575b505050505081525050905060006127108260a001518360600151610fac9190613b15565b610fb69190613b86565b9050808260600151610fc89190613bb7565b92505050919050565b600260009054906101000a900473ffffffffffffffffffffffffffffffffffffffff1681565b6006602052816000526040600020818154811061101357600080fd5b90600052602060002001600091509150505481565b6110306129a7565b60046000838152602001908152602001600020604051806101a0016040529081600082015481526020016001820160009054906101000a900473ffffffffffffffffffffffffffffffffffffffff1673ffffffffffffffffffffffffffffffffffffffff1673ffffffffffffffffffffffffffffffffffffffff1681526020016002820160009054906101000a900473ffffffffffffffffffffffffffffffffffffffff1673ffffffffffffffffffffffffffffffffffffffff1673ffffffffffffffffffffffffffffffffffffffff16815260200160038201548152602001600482015481526020016005820154815260200160068201548152602001600782015481526020016008820154815260200160098201548152602001600a820160009054906101000a900460ff1660ff1660ff168152602001600b8201805461117890613794565b80601f01602080910402602001604051908101604052809291908181526020018280546111a490613794565b80156111f15780601f106111c6576101008083540402835291602001916111f1565b820191906000526020600020905b8154815290600101906020018083116111d457829003601f168201915b50505050508152602001600c820180548060200260200160405190810160405280929190818152602001828054801561127f57602002820191906000526020600020905b8160009054906101000a900473ffffffffffffffffffffffffffffffffffffffff1673ffffffffffffffffffffffffffffffffffffffff1681526020019060010190808311611235575b5050505050815250509050919050565b6000600460008381526020019081526020016000209050600481600a0160009054906101000a900460ff1660ff16146112fd576040517f08c379a00000000000000000000000000000000000000000000000000000000081526004016112f490613c37565b60405180910390fd5b8060090154421015611344576040517f08c379a000000000000000000000000000000000000000000000000000000000815260040161133b90613ca3565b60405180910390fd5b600581600a0160006101000a81548160ff021916908360ff1602179055506000600160009054906101000a900473ffffffffffffffffffffffffffffffffffffffff1673ffffffffffffffffffffffffffffffffffffffff16632009d598848460020160009054906101000a900473ffffffffffffffffffffffffffffffffffffffff166040518363ffffffff1660e01b81526004016113e5929190613ce4565b6020604051808303816000875af1158015611404573d6000803e3d6000fd5b505050506040513d601f19601f82011682018060405250810190611428919061351f565b9050600260009054906101000a900473ffffffffffffffffffffffffffffffffffffffff1673ffffffffffffffffffffffffffffffffffffffff1663cd4544f28360010160009054906101000a900473ffffffffffffffffffffffffffffffffffffffff1684600301546040518363ffffffff1660e01b81526004016114af929190613d0d565b600060405180830381600087803b1580156114c957600080fd5b505af11580156114dd573d6000803e3d6000fd5b50505050827f6d69bc10ecdd74a6ab99ff02c34bf431994898d5ee165b701d6b04956ae14e41826040516115119190612c21565b60405180910390a2505050565b611526612603565b6115306000612681565b565b6000600460008381526020019081526020016000209050600181600a0160009054906101000a900460ff1660ff16146115a0576040517f08c379a000000000000000000000000000000000000000000000000000000000815260040161159790613d82565b60405180910390fd5b806003015434146115e6576040517f08c379a00000000000000000000000000000000000000000000000000000000081526004016115dd90613dee565b60405180910390fd5b600073ffffffffffffffffffffffffffffffffffffffff168160020160009054906101000a900473ffffffffffffffffffffffffffffffffffffffff1673ffffffffffffffffffffffffffffffffffffffff1614611679576040517f08c379a000000000000000000000000000000000000000000000000000000000815260040161167090613e5a565b60405180910390fd5b338160020160006101000a81548173ffffffffffffffffffffffffffffffffffffffff021916908373ffffffffffffffffffffffffffffffffffffffff1602179055504281600701819055506201518081600401546116d89190613b15565b426116e39190613bb7565b8160080181905550600281600a0160006101000a81548160ff021916908360ff160217905550600660003373ffffffffffffffffffffffffffffffffffffffff1673ffffffffffffffffffffffffffffffffffffffff16815260200190815260200160002082908060018154018082558091505060019003906000526020600020016000909190919091505560008160010160009054906101000a900473ffffffffffffffffffffffffffffffffffffffff1673ffffffffffffffffffffffffffffffffffffffff16346040516117b990613eab565b60006040518083038185875af1925050503d80600081146117f6576040519150601f19603f3d011682016040523d82523d6000602084013e6117fb565b606091505b505090508061183f576040517f08c379a000000000000000000000000000000000000000000000000000000000815260040161183690613f0c565b60405180910390fd5b600260009054906101000a900473ffffffffffffffffffffffffffffffffffffffff1673ffffffffffffffffffffffffffffffffffffffff1663baae45e18360010160009054906101000a900473ffffffffffffffffffffffffffffffffffffffff1684600301546040518363ffffffff1660e01b81526004016118c4929190613d0d565b600060405180830381600087803b1580156118de57600080fd5b505af11580156118f2573d6000803e3d6000fd5b505050503373ffffffffffffffffffffffffffffffffffffffff16837fbd7ef6c6281278f6c8ac4ae9ef2f205b52425813c288dd47c377cb6b59c5076e3460405161193d9190612c21565b60405180910390a3505050565b60008060009054906101000a900473ffffffffffffffffffffffffffffffffffffffff16905090565b60006004600083815260200190815260200160002090503373ffffffffffffffffffffffffffffffffffffffff168160010160009054906101000a900473ffffffffffffffffffffffffffffffffffffffff1673ffffffffffffffffffffffffffffffffffffffff1614611a1c576040517f08c379a0000000000000000000000000000000000000000000000000000000008152600401611a1390613f78565b60405180910390fd5b600281600a0160009054906101000a900460ff1660ff1614611a73576040517f08c379a0000000000000000000000000000000000000000000000000000000008152600401611a6a90613fe4565b60405180910390fd5b600061271082600501548360030154611a8c9190613b15565b611a969190613b86565b90506000818360030154611aaa9190613bb7565b905080341015611aef576040517f08c379a0000000000000000000000000000000000000000000000000000000008152600401611ae690614050565b60405180910390fd5b600383600a0160006101000a81548160ff021916908360ff1602179055506000612710610bb884611b209190613b15565b611b2a9190613b86565b90506000600160009054906101000a900473ffffffffffffffffffffffffffffffffffffffff1673ffffffffffffffffffffffffffffffffffffffff1682604051611b7490613eab565b60006040518083038185875af1925050503d8060008114611bb1576040519150601f19603f3d011682016040523d82523d6000602084013e611bb6565b606091505b5050905080611bfa576040517f08c379a0000000000000000000000000000000000000000000000000000000008152600401611bf1906140bc565b60405180910390fd5b600160009054906101000a900473ffffffffffffffffffffffffffffffffffffffff1673ffffffffffffffffffffffffffffffffffffffff16636d2a81eb87866040518363ffffffff1660e01b8152600401611c579291906140dc565b600060405180830381600087803b158015611c7157600080fd5b505af1158015611c85573d6000803e3d6000fd5b505050506000612710611b5886611c9c9190613b15565b611ca69190613b86565b8660030154611cb59190613bb7565b905060008660020160009054906101000a900473ffffffffffffffffffffffffffffffffffffffff1673ffffffffffffffffffffffffffffffffffffffff1682604051611d0190613eab565b60006040518083038185875af1925050503d8060008114611d3e576040519150601f19603f3d011682016040523d82523d6000602084013e611d43565b606091505b5050905080611d87576040517f08c379a0000000000000000000000000000000000000000000000000000000008152600401611d7e90614151565b60405180910390fd5b600260009054906101000a900473ffffffffffffffffffffffffffffffffffffffff1673ffffffffffffffffffffffffffffffffffffffff1663239c3df88860010160009054906101000a900473ffffffffffffffffffffffffffffffffffffffff1689600301546040518363ffffffff1660e01b8152600401611e0c929190613d0d565b600060405180830381600087803b158015611e2657600080fd5b505af1158015611e3a573d6000803e3d6000fd5b5050505060008534611e4c9190614171565b90506000811115611f055760003373ffffffffffffffffffffffffffffffffffffffff1682604051611e7d90613eab565b60006040518083038185875af1925050503d8060008114611eba576040519150601f19603f3d011682016040523d82523d6000602084013e611ebf565b606091505b5050905080611f03576040517f08c379a0000000000000000000000000000000000000000000000000000000008152600401611efa906141f1565b60405180910390fd5b505b3373ffffffffffffffffffffffffffffffffffffffff16897f512d3e65b3e58c2187bb1872aa435dba5bd09c1c03823ba56ab70aac411e4a2134604051611f4c9190612c21565b60405180910390a3505050505050505050565b611f698282612745565b5050565b611f7a816000801b612745565b50565b60076020528060005260406000206000915090505481565b6000600460008381526020019081526020016000209050600081600a0160009054906101000a900460ff1660ff1614612003576040517f08c379a0000000000000000000000000000000000000000000000000000000008152600401611ffa9061425d565b60405180910390fd5b600160009054906101000a900473ffffffffffffffffffffffffffffffffffffffff1673ffffffffffffffffffffffffffffffffffffffff1663bd63d328836040518263ffffffff1660e01b815260040161205e9190612c21565b602060405180830381865afa15801561207b573d6000803e3d6000fd5b505050506040513d601f19601f8201168201806040525081019061209f91906142b5565b156120f057600181600a0160006101000a81548160ff021916908360ff160217905550817fb85fe887dba47e2d74ef540b8140275817ca7af3cea7f1078b4b6212f5e1a96060405160405180910390a25b5050565b60046020528060005260406000206000915090508060000154908060010160009054906101000a900473ffffffffffffffffffffffffffffffffffffffff16908060020160009054906101000a900473ffffffffffffffffffffffffffffffffffffffff169080600301549080600401549080600501549080600601549080600701549080600801549080600901549080600a0160009054906101000a900460ff169080600b0180546121a690613794565b80601f01602080910402602001604051908101604052809291908181526020018280546121d290613794565b801561221f5780601f106121f45761010080835404028352916020019161221f565b820191906000526020600020905b81548152906001019060200180831161220257829003601f168201915b505050505090508c565b6005602052816000526040600020818154811061224557600080fd5b90600052602060002001600091509150505481565b6060600560008373ffffffffffffffffffffffffffffffffffffffff1673ffffffffffffffffffffffffffffffffffffffff1681526020019081526020016000208054806020026020016040519081016040528092919081815260200182805480156122e557602002820191906000526020600020905b8154815260200190600101908083116122d1575b50505050509050919050565b6060600660008373ffffffffffffffffffffffffffffffffffffffff1673ffffffffffffffffffffffffffffffffffffffff16815260200190815260200160002080548060200260200160405190810160405280929190818152602001828054801561237c57602002820191906000526020600020905b815481526020019060010190808311612368575b50505050509050919050565b612390612603565b600073ffffffffffffffffffffffffffffffffffffffff168173ffffffffffffffffffffffffffffffffffffffff16036123ff576040517f08c379a00000000000000000000000000000000000000000000000000000000081526004016123f690614354565b60405180910390fd5b61240881612681565b50565b60006004600083815260200190815260200160002090503373ffffffffffffffffffffffffffffffffffffffff168160020160009054906101000a900473ffffffffffffffffffffffffffffffffffffffff1673ffffffffffffffffffffffffffffffffffffffff16146124b4576040517f08c379a00000000000000000000000000000000000000000000000000000000081526004016124ab906143c0565b60405180910390fd5b600281600a0160009054906101000a900460ff1660ff161461250b576040517f08c379a00000000000000000000000000000000000000000000000000000000081526004016125029061442c565b60405180910390fd5b80600801544211612551576040517f08c379a000000000000000000000000000000000000000000000000000000000815260040161254890614498565b60405180910390fd5b600481600a0160006101000a81548160ff021916908360ff1602179055506202a3004261257e9190613bb7565b81600901819055503373ffffffffffffffffffffffffffffffffffffffff16827f730f277277cc712e23a43a4a3ce8679a46f58324ed8b495405bcfe1ecee3abc783600901546040516125d19190612c21565b60405180910390a35050565b600160009054906101000a900473ffffffffffffffffffffffffffffffffffffffff1681565b61260b612915565b73ffffffffffffffffffffffffffffffffffffffff1661262961194a565b73ffffffffffffffffffffffffffffffffffffffff161461267f576040517f08c379a000000000000000000000000000000000000000000000000000000000815260040161267690614504565b60405180910390fd5b565b60008060009054906101000a900473ffffffffffffffffffffffffffffffffffffffff169050816000806101000a81548173ffffffffffffffffffffffffffffffffffffffff021916908373ffffffffffffffffffffffffffffffffffffffff1602179055508173ffffffffffffffffffffffffffffffffffffffff168173ffffffffffffffffffffffffffffffffffffffff167f8be0079c531659141344cd1fd0a4f28419497f9722a3daafe3b4186f6b6457e060405160405180910390a35050565b60006004600084815260200190815260200160002090503373ffffffffffffffffffffffffffffffffffffffff168160010160009054906101000a900473ffffffffffffffffffffffffffffffffffffffff1673ffffffffffffffffffffffffffffffffffffffff16146127ee576040517f08c379a00000000000000000000000000000000000000000000000000000000081526004016127e590613f78565b60405180910390fd5b600481600a0160009054906101000a900460ff1660ff1614612845576040517f08c379a000000000000000000000000000000000000000000000000000000000815260040161283c90614570565b60405180910390fd5b8060090154421061288b576040517f08c379a0000000000000000000000000000000000000000000000000000000008152600401612882906145dc565b60405180910390fd5b816007600085815260200190815260200160002081905550600281600a0160006101000a81548160ff021916908360ff1602179055503373ffffffffffffffffffffffffffffffffffffffff16837fabb3efa11b1fe15ebd8e3625876a532e1da836a05e2e5576f47216886a7f111e8460405161290891906130eb565b60405180910390a3505050565b600033905090565b828054828255906000526020600020908101928215612996579160200282015b828111156129955782518260006101000a81548173ffffffffffffffffffffffffffffffffffffffff021916908373ffffffffffffffffffffffffffffffffffffffff1602179055509160200191906001019061293d565b5b5090506129a39190612a3e565b5090565b604051806101a0016040528060008152602001600073ffffffffffffffffffffffffffffffffffffffff168152602001600073ffffffffffffffffffffffffffffffffffffffff16815260200160008152602001600081526020016000815260200160008152602001600081526020016000815260200160008152602001600060ff16815260200160608152602001606081525090565b5b80821115612a57576000816000905550600101612a3f565b5090565b600080fd5b600080fd5b6000819050919050565b612a7881612a65565b8114612a8357600080fd5b50565b600081359050612a9581612a6f565b92915050565b600080fd5b600080fd5b600080fd5b60008083601f840112612ac057612abf612a9b565b5b8235905067ffffffffffffffff811115612add57612adc612aa0565b5b602083019150836001820283011115612af957612af8612aa5565b5b9250929050565b60008083601f840112612b1657612b15612a9b565b5b8235905067ffffffffffffffff811115612b3357612b32612aa0565b5b602083019150836020820283011115612b4f57612b4e612aa5565b5b9250929050565b600080600080600080600060a0888a031215612b7557612b74612a5b565b5b6000612b838a828b01612a86565b9750506020612b948a828b01612a86565b9650506040612ba58a828b01612a86565b955050606088013567ffffffffffffffff811115612bc657612bc5612a60565b5b612bd28a828b01612aaa565b9450945050608088013567ffffffffffffffff811115612bf557612bf4612a60565b5b612c018a828b01612b00565b925092505092959891949750929550565b612c1b81612a65565b82525050565b6000602082019050612c366000830184612c12565b92915050565b600060208284031215612c5257612c51612a5b565b5b6000612c6084828501612a86565b91505092915050565b600073ffffffffffffffffffffffffffffffffffffffff82169050919050565b6000819050919050565b6000612cae612ca9612ca484612c69565b612c89565b612c69565b9050919050565b6000612cc082612c93565b9050919050565b6000612cd282612cb5565b9050919050565b612ce281612cc7565b82525050565b6000602082019050612cfd6000830184612cd9565b92915050565b6000612d0e82612c69565b9050919050565b612d1e81612d03565b8114612d2957600080fd5b50565b600081359050612d3b81612d15565b92915050565b60008060408385031215612d5857612d57612a5b565b5b6000612d6685828601612d2c565b9250506020612d7785828601612a86565b9150509250929050565b612d8a81612a65565b82525050565b612d9981612d03565b82525050565b600060ff82169050919050565b612db581612d9f565b82525050565b600081519050919050565b600082825260208201905092915050565b60005b83811015612df5578082015181840152602081019050612dda565b60008484015250505050565b6000601f19601f8301169050919050565b6000612e1d82612dbb565b612e278185612dc6565b9350612e37818560208601612dd7565b612e4081612e01565b840191505092915050565b600081519050919050565b600082825260208201905092915050565b6000819050602082019050919050565b6000612e838383612d90565b60208301905092915050565b6000602082019050919050565b6000612ea782612e4b565b612eb18185612e56565b9350612ebc83612e67565b8060005b83811015612eed578151612ed48882612e77565b9750612edf83612e8f565b925050600181019050612ec0565b5085935050505092915050565b60006101a083016000830151612f136000860182612d81565b506020830151612f266020860182612d90565b506040830151612f396040860182612d90565b506060830151612f4c6060860182612d81565b506080830151612f5f6080860182612d81565b5060a0830151612f7260a0860182612d81565b5060c0830151612f8560c0860182612d81565b5060e0830151612f9860e0860182612d81565b50610100830151612fad610100860182612d81565b50610120830151612fc2610120860182612d81565b50610140830151612fd7610140860182612dac565b50610160830151848203610160860152612ff18282612e12565b91505061018083015184820361018086015261300d8282612e9c565b9150508091505092915050565b600060208201905081810360008301526130348184612efa565b905092915050565b61304581612d03565b82525050565b6000602082019050613060600083018461303c565b92915050565b6000819050919050565b61307981613066565b811461308457600080fd5b50565b60008135905061309681613070565b92915050565b600080604083850312156130b3576130b2612a5b565b5b60006130c185828601612a86565b92505060206130d285828601613087565b9150509250929050565b6130e581613066565b82525050565b600060208201905061310060008301846130dc565b92915050565b61310f81612d9f565b82525050565b600082825260208201905092915050565b600061313182612dbb565b61313b8185613115565b935061314b818560208601612dd7565b61315481612e01565b840191505092915050565b600061018082019050613175600083018f612c12565b613182602083018e61303c565b61318f604083018d61303c565b61319c606083018c612c12565b6131a9608083018b612c12565b6131b660a083018a612c12565b6131c360c0830189612c12565b6131d060e0830188612c12565b6131de610100830187612c12565b6131ec610120830186612c12565b6131fa610140830185613106565b81810361016083015261320d8184613126565b90509d9c50505050505050505050505050565b60006020828403121561323657613235612a5b565b5b600061324484828501612d2c565b91505092915050565b600081519050919050565b600082825260208201905092915050565b6000819050602082019050919050565b60006132858383612d81565b60208301905092915050565b6000602082019050919050565b60006132a98261324d565b6132b38185613258565b93506132be83613269565b8060005b838110156132ef5781516132d68882613279565b97506132e183613291565b9250506001810190506132c2565b5085935050505092915050565b60006020820190508181036000830152613316818461329e565b905092915050565b600061332982612cb5565b9050919050565b6133398161331e565b82525050565b60006020820190506133546000830184613330565b92915050565b7f416d6f756e74206d757374206265203e20300000000000000000000000000000600082015250565b6000613390601283613115565b915061339b8261335a565b602082019050919050565b600060208201905081810360008301526133bf81613383565b9050919050565b7f5465726d3a20312d333635206461797300000000000000000000000000000000600082015250565b60006133fc601083613115565b9150613407826133c6565b602082019050919050565b6000602082019050818103600083015261342b816133ef565b9050919050565b7f496e7465726573743a2031252d35302500000000000000000000000000000000600082015250565b6000613468601083613115565b915061347382613432565b602082019050919050565b600060208201905081810360008301526134978161345b565b9050919050565b7f322d3320766f7563686572732072657175697265640000000000000000000000600082015250565b60006134d4601583613115565b91506134df8261349e565b602082019050919050565b60006020820190508181036000830152613503816134c7565b9050919050565b60008151905061351981612a6f565b92915050565b60006020828403121561353557613534612a5b565b5b60006135438482850161350a565b91505092915050565b7f416d6f756e742065786365656473207472757374206c696d6974000000000000600082015250565b6000613582601a83613115565b915061358d8261354c565b602082019050919050565b600060208201905081810360008301526135b181613575565b9050919050565b7f4e487b7100000000000000000000000000000000000000000000000000000000600052603260045260246000fd5b7f43616e6e6f7420766f75636820666f7220796f757273656c6600000000000000600082015250565b600061361d601983613115565b9150613628826135e7565b602082019050919050565b6000602082019050818103600083015261364c81613610565b9050919050565b7f496e76616c696420766f75636865722061646472657373000000000000000000600082015250565b6000613689601783613115565b915061369482613653565b602082019050919050565b600060208201905081810360008301526136b88161367c565b9050919050565b7f4e487b7100000000000000000000000000000000000000000000000000000000600052601160045260246000fd5b60006136f982612a65565b91507fffffffffffffffffffffffffffffffffffffffffffffffffffffffffffffffff820361372b5761372a6136bf565b5b600182019050919050565b7f4e487b7100000000000000000000000000000000000000000000000000000000600052604160045260246000fd5b7f4e487b7100000000000000000000000000000000000000000000000000000000600052602260045260246000fd5b600060028204905060018216806137ac57607f821691505b6020821081036137bf576137be613765565b5b50919050565b60008190508160005260206000209050919050565b60006020601f8301049050919050565b600082821b905092915050565b6000600883026138277fffffffffffffffffffffffffffffffffffffffffffffffffffffffffffffffff826137ea565b61383186836137ea565b95508019841693508086168417925050509392505050565b600061386461385f61385a84612a65565b612c89565b612a65565b9050919050565b6000819050919050565b61387e83613849565b61389261388a8261386b565b8484546137f7565b825550505050565b600090565b6138a761389a565b6138b2818484613875565b505050565b5b818110156138d6576138cb60008261389f565b6001810190506138b8565b5050565b601f82111561391b576138ec816137c5565b6138f5846137da565b81016020851015613904578190505b613918613910856137da565b8301826138b7565b50505b505050565b600082821c905092915050565b600061393e60001984600802613920565b1980831691505092915050565b6000613957838361392d565b9150826002028217905092915050565b61397082612dbb565b67ffffffffffffffff81111561398957613988613736565b5b6139938254613794565b61399e8282856138da565b600060209050601f8311600181146139d157600084156139bf578287015190505b6139c9858261394b565b865550613a31565b601f1984166139df866137c5565b60005b82811015613a07578489015182556001820191506020850194506020810190506139e2565b86831015613a245784890151613a20601f89168261392d565b8355505b6001600288020188555050505b505050505050565b600082825260208201905092915050565b6000819050919050565b6000613a636020840184612d2c565b905092915050565b6000602082019050919050565b6000613a848385613a39565b9350613a8f82613a4a565b8060005b85811015613ac857613aa58284613a54565b613aaf8882612e77565b9750613aba83613a6b565b925050600181019050613a93565b5085925050509392505050565b6000606082019050613aea6000830187612c12565b613af76020830186612c12565b8181036040830152613b0a818486613a78565b905095945050505050565b6000613b2082612a65565b9150613b2b83612a65565b9250828202613b3981612a65565b91508282048414831517613b5057613b4f6136bf565b5b5092915050565b7f4e487b7100000000000000000000000000000000000000000000000000000000600052601260045260246000fd5b6000613b9182612a65565b9150613b9c83612a65565b925082613bac57613bab613b57565b5b828204905092915050565b6000613bc282612a65565b9150613bcd83612a65565b9250828201905080821115613be557613be46136bf565b5b92915050565b7f4e6f7420696e2064656661756c7420636c61696d656420737461746500000000600082015250565b6000613c21601c83613115565b9150613c2c82613beb565b602082019050919050565b60006020820190508181036000830152613c5081613c14565b9050919050565b7f446973707574652077696e646f77207374696c6c206f70656e00000000000000600082015250565b6000613c8d601983613115565b9150613c9882613c57565b602082019050919050565b60006020820190508181036000830152613cbc81613c80565b9050919050565b6000613cce82612c69565b9050919050565b613cde81613cc3565b82525050565b6000604082019050613cf96000830185612c12565b613d066020830184613cd5565b9392505050565b6000604082019050613d22600083018561303c565b613d2f6020830184612c12565b9392505050565b7f4c6f616e206e6f742066756c6c7920766f756368656400000000000000000000600082015250565b6000613d6c601683613115565b9150613d7782613d36565b602082019050919050565b60006020820190508181036000830152613d9b81613d5f565b9050919050565b7f4d7573742073656e64206578616374206c6f616e20616d6f756e740000000000600082015250565b6000613dd8601b83613115565b9150613de382613da2565b602082019050919050565b60006020820190508181036000830152613e0781613dcb565b9050919050565b7f416c72656164792066756e646564000000000000000000000000000000000000600082015250565b6000613e44600e83613115565b9150613e4f82613e0e565b602082019050919050565b60006020820190508181036000830152613e7381613e37565b9050919050565b600081905092915050565b50565b6000613e95600083613e7a565b9150613ea082613e85565b600082019050919050565b6000613eb682613e88565b9150819050919050565b7f426f72726f776572207061796d656e74206661696c6564000000000000000000600082015250565b6000613ef6601783613115565b9150613f0182613ec0565b602082019050919050565b60006020820190508181036000830152613f2581613ee9565b9050919050565b7f4e6f742074686520626f72726f77657200000000000000000000000000000000600082015250565b6000613f62601083613115565b9150613f6d82613f2c565b602082019050919050565b60006020820190508181036000830152613f9181613f55565b9050919050565b7f4c6f616e206e6f7420696e2046756e6465642073746174650000000000000000600082015250565b6000613fce601883613115565b9150613fd982613f98565b602082019050919050565b60006020820190508181036000830152613ffd81613fc1565b9050919050565b7f496e73756666696369656e742072657061796d656e7400000000000000000000600082015250565b600061403a601683613115565b915061404582614004565b602082019050919050565b600060208201905081810360008301526140698161402d565b9050919050565b7f5969656c64207472616e73666572206661696c65640000000000000000000000600082015250565b60006140a6601583613115565b91506140b182614070565b602082019050919050565b600060208201905081810360008301526140d581614099565b9050919050565b60006040820190506140f16000830185612c12565b6140fe6020830184612c12565b9392505050565b7f4c656e646572207061796d656e74206661696c65640000000000000000000000600082015250565b600061413b601583613115565b915061414682614105565b602082019050919050565b6000602082019050818103600083015261416a8161412e565b9050919050565b600061417c82612a65565b915061418783612a65565b925082820390508181111561419f5761419e6136bf565b5b92915050565b7f526566756e64206661696c656400000000000000000000000000000000000000600082015250565b60006141db600d83613115565b91506141e6826141a5565b602082019050919050565b6000602082019050818103600083015261420a816141ce565b9050919050565b7f4e6f7420696e2070656e64696e67207374617465000000000000000000000000600082015250565b6000614247601483613115565b915061425282614211565b602082019050919050565b600060208201905081810360008301526142768161423a565b9050919050565b60008115159050919050565b6142928161427d565b811461429d57600080fd5b50565b6000815190506142af81614289565b92915050565b6000602082840312156142cb576142ca612a5b565b5b60006142d9848285016142a0565b91505092915050565b7f4f776e61626c653a206e6577206f776e657220697320746865207a65726f206160008201527f6464726573730000000000000000000000000000000000000000000000000000602082015250565b600061433e602683613115565b9150614349826142e2565b604082019050919050565b6000602082019050818103600083015261436d81614331565b9050919050565b7f4e6f7420746865206c656e646572000000000000000000000000000000000000600082015250565b60006143aa600e83613115565b91506143b582614374565b602082019050919050565b600060208201905081810360008301526143d98161439d565b9050919050565b7f4c6f616e206e6f74206163746976650000000000000000000000000000000000600082015250565b6000614416600f83613115565b9150614421826143e0565b602082019050919050565b6000602082019050818103600083015261444581614409565b9050919050565b7f4c6f616e206e6f74207965742064756500000000000000000000000000000000600082015250565b6000614482601083613115565b915061448d8261444c565b602082019050919050565b600060208201905081810360008301526144b181614475565b9050919050565b7f4f776e61626c653a2063616c6c6572206973206e6f7420746865206f776e6572600082015250565b60006144ee602083613115565b91506144f9826144b8565b602082019050919050565b6000602082019050818103600083015261451d816144e1565b9050919050565b7f4e6f206163746976652064656661756c7420636c61696d000000000000000000600082015250565b600061455a601783613115565b915061456582614524565b602082019050919050565b600060208201905081810360008301526145898161454d565b9050919050565b7f446973707574652077696e646f7720636c6f7365640000000000000000000000600082015250565b60006145c6601583613115565b91506145d182614590565b602082019050919050565b600060208201905081810360008301526145f5816145b9565b905091905056fea26469706673582212207439613f0a910dc15bee08e921e5e0f53bd2c1e3dc72ce03f8e5af83fdc6818664736f6c63430008140033",
  "linkReferences": {},
  "deployedLinkReferences": {}
}