{
  "_format": "hh-sol-artifact-1",
  "contractName": "ReputationToken",
  "sourceName": "contracts/ReputationToken.sol",
  "abi": [
    {
      "inputs": [],
      "stateMutability": "nonpayable",
      "type": "constructor"
    },
    {
      "anonymous": false,
      "inputs": [
        {
          "indexed": true,
          "internalType": "address",
          "name": "owner",
          "type": "address"
        },
        {
          "indexed": true,
          "internalType": "address",
          "name": "approved",
          "type": "address"
        },
        {
          "indexed": true,
          "internalType": "uint256",
          "name": "tokenId",
          "type": "uint256"
        }
      ],
      "name": "Approval",
      "type": "event"
    },
    {
      "anonymous": false,
      "inputs": [
        {
          "indexed": true,
          "internalType": "address",
          "name": "owner",
          "type": "address"
        },
        {
          "indexed": true,
          "internalType": "address",
          "name": "operator",
          "type": "address"
        },
        {
          "indexed": false,
          "internalType": "bool",
          "name": "approved",
          "type": "bool"
        }
      ],
      "name": "ApprovalForAll",
      "type": "event"
    },
    {
      "anonymous": false,
      "inputs": [
        {
          "indexed": true,
          "internalType": "address",
          "name": "previousOwner",
          "type": "address"
        },
        {
          "indexed": true,
          "internalType": "address",
          "name": "newOwner",
          "type": "address"
        }
      ],
      "name": "OwnershipTransferred",
      "type": "event"
    },
    {
      "anonymous": false,
      "inputs": [
        {
          "indexed": true,
          "internalType": "address",
          "name": "wallet",
          "type": "address"
        },
        {
          "indexed": false,
          "internalType": "uint8",
          "name": "eventType",
          "type": "uint8"
        }
      ],
      "name": "ScoreUpdated",
      "type": "event"
    },
    {
      "anonymous": false,
      "inputs": [
        {
          "indexed": true,
          "internalType": "address",
          "name": "from",
          "type": "address"
        },
        {
          "indexed": true,
          "internalType": "address",
          "name": "to",
          "type": "address"
        },
        {
          "indexed": true,
          "internalType": "uint256",
          "name": "tokenId",
          "type": "uint256"
        }
      ],
      "name": "Transfer",
      "type": "event"
    },
    {
      "inputs": [
        {
          "internalType": "address",
          "name": "",
          "type": "address"
        }
      ],
      "name": "addressToTokenId",
      "outputs": [
        {
          "internalType": "uint256",
          "name": "",
          "type": "uint256"
        }
      ],
      "stateMutability": "view",
      "type": "function"
    },
    {
      "inputs": [
        {
          "internalType": "address",
          "name": "to",
          "type": "address"
        },
        {
          "internalType": "uint256",
          "name": "tokenId",
          "type": "uint256"
        }
      ],
      "name": "approve",
      "outputs": [],
      "stateMutability": "nonpayable",
      "type": "function"
    },
    {
      "inputs": [
        {
          "internalType": "address",
          "name": "owner",
          "type": "address"
        }
      ],
      "name": "balanceOf",
      "outputs": [
        {
          "internalType": "uint256",
          "name": "",
          "type": "uint256"
        }
      ],
      "stateMutability": "view",
      "type": "function"
    },
    {
      "inputs": [
        {
          "internalType": "uint256",
          "name": "tokenId",
          "type": "uint256"
        }
      ],
      "name": "getApproved",
      "outputs": [
        {
          "internalType": "address",
          "name": "",
          "type": "address"
        }
      ],
      "stateMutability": "view",
      "type": "function"
    },
    {
      "inputs": [
        {
          "internalType": "address",
          "name": "wallet",
          "type": "address"
        }
      ],
      "name": "getMaxLoan",
      "outputs": [
        {
          "internalType": "uint256",
          "name": "",
          "type": "uint256"
        }
      ],
      "stateMutability": "view",
      "type": "function"
    },
    {
      "inputs": [
        {
          "internalType": "address",
          "name": "wallet",
          "type": "address"
        }
      ],
      "name": "getProfile",
      "outputs": [
        {
          "components": [
            {
              "internalType": "uint256",
              "name": "repaymentCount",
              "type": "uint256"
            },
            {
              "internalType": "uint256",
              "name": "defaultCount",
              "type": "uint256"
            },
            {
              "internalType": "uint256",
              "name": "totalBorrowed",
              "type": "uint256"
            },
            {
              "internalType": "uint256",
              "name": "totalRepaid",
              "type": "uint256"
            },
            {
              "internalType": "uint256",
              "name": "vouchCount",
              "type": "uint256"
            },
            {
              "internalType": "uint256",
              "name": "successfulVouches",
              "type": "uint256"
            },
            {
              "internalType": "uint256",
              "name": "mintedAt",
              "type": "uint256"
            }
          ],
          "internalType": "struct ReputationToken.Profile",
          "name": "",
          "type": "tuple"
        }
      ],
      "stateMutability": "view",
      "type": "function"
    },
    {
      "inputs": [
        {
          "internalType": "address",
          "name": "wallet",
          "type": "address"
        }
      ],
      "name": "getScore",
      "outputs": [
        {
          "internalType": "uint256",
          "name": "",
          "type": "uint256"
        }
      ],
      "stateMutability": "view",
      "type": "function"
    },
    {
      "inputs": [
        {
          "internalType": "address",
          "name": "owner",
          "type": "address"
        },
        {
          "internalType": "address",
          "name": "operator",
          "type": "address"
        }
      ],
      "name": "isApprovedForAll",
      "outputs": [
        {
          "internalType": "bool",
          "name": "",
          "type": "bool"
        }
      ],
      "stateMutability": "view",
      "type": "function"
    },
    {
      "inputs": [],
      "name": "loanRequestContract",
      "outputs": [
        {
          "internalType": "address",
          "name": "",
          "type": "address"
        }
      ],
      "stateMutability": "view",
      "type": "function"
    },
    {
      "inputs": [
        {
          "internalType": "address",
          "name": "wallet",
          "type": "address"
        }
      ],
      "name": "mintIfNew",
      "outputs": [],
      "stateMutability": "nonpayable",
      "type": "function"
    },
    {
      "inputs": [],
      "name": "name",
      "outputs": [
        {
          "internalType": "string",
          "name": "",
          "type": "string"
        }
      ],
      "stateMutability": "view",
      "type": "function"
    },
    {
      "inputs": [],
      "name": "owner",
      "outputs": [
        {
          "internalType": "address",
          "name": "",
          "type": "address"
        }
      ],
      "stateMutability": "view",
      "type": "function"
    },
    {
      "inputs": [
        {
          "internalType": "uint256",
          "name": "tokenId",
          "type": "uint256"
        }
      ],
      "name": "ownerOf",
      "outputs": [
        {
          "internalType": "address",
          "name": "",
          "type": "address"
        }
      ],
      "stateMutability": "view",
      "type": "function"
    },
    {
      "inputs": [
        {
          "internalType": "uint256",
          "name": "",
          "type": "uint256"
        }
      ],
      "name": "profiles",
      "outputs": [
        {
          "internalType": "uint256",
          "name": "repaymentCount",
          "type": "uint256"
        },
        {
          "internalType": "uint256",
          "name": "defaultCount",
          "type": "uint256"
        },
        {
          "internalType": "uint256",
          "name": "totalBorrowed",
          "type": "uint256"
        },
        {
          "internalType": "uint256",
          "name": "totalRepaid",
          "type": "uint256"
        },
        {
          "internalType": "uint256",
          "name": "vouchCount",
          "type": "uint256"
        },
        {
          "internalType": "uint256",
          "name": "successfulVouches",
          "type": "uint256"
        },
        {
          "internalType": "uint256",
          "name": "mintedAt",
          "type": "uint256"
        }
      ],
      "stateMutability": "view",
      "type": "function"
    },
    {
      "inputs": [
        {
          "internalType": "address",
          "name": "wallet",
          "type": "address"
        },
        {
          "internalType": "uint256",
          "name": "amount",
          "type": "uint256"
        }
      ],
      "name": "recordBorrow",
      "outputs": [],
      "stateMutability": "nonpayable",
      "type": "function"
    },
    {
      "inputs": [
        {
          "internalType": "address",
          "name": "wallet",
          "type": "address"
        },
        {
          "internalType": "uint256",
          "name": "amount",
          "type": "uint256"
        }
      ],
      "name": "recordDefault",
      "outputs": [],
      "stateMutability": "nonpayable",
      "type": "function"
    },
    {
      "inputs": [
        {
          "internalType": "address",
          "name": "wallet",
          "type": "address"
        },
        {
          "internalType": "uint256",
          "name": "amount",
          "type": "uint256"
        }
      ],
      "name": "recordRepayment",
      "outputs": [],
      "stateMutability": "nonpayable",
      "type": "function"
    },
    {
      "inputs": [
        {
          "internalType": "address",
          "name": "voucher",
          "type": "address"
        }
      ],
      "name": "recordVouchSlash",
      "outputs": [],
      "stateMutability": "nonpayable",
      "type": "function"
    },
    {
      "inputs": [
        {
          "internalType": "address",
          "name": "voucher",
          "type": "address"
        }
      ],
      "name": "recordVouchSuccess",
      "outputs": [],
      "stateMutability": "nonpayable",
      "type": "function"
    },
    {
      "inputs": [],
      "name": "renounceOwnership",
      "outputs": [],
      "stateMutability": "nonpayable",
      "type": "function"
    },
    {
      "inputs": [
        {
          "internalType": "address",
          "name": "from",
          "type": "address"
        },
        {
          "internalType": "address",
          "name": "to",
          "type": "address"
        },
        {
          "internalType": "uint256",
          "name": "tokenId",
          "type": "uint256"
        }
      ],
      "name": "safeTransferFrom",
      "outputs": [],
      "stateMutability": "nonpayable",
      "type": "function"
    },
    {
      "inputs": [
        {
          "internalType": "address",
          "name": "",
          "type": "address"
        },
        {
          "internalType": "address",
          "name": "",
          "type": "address"
        },
        {
          "internalType": "uint256",
          "name": "",
          "type": "uint256"
        },
        {
          "internalType": "bytes",
          "name": "",
          "type": "bytes"
        }
      ],
      "name": "safeTransferFrom",
      "outputs": [],
      "stateMutability": "pure",
      "type": "function"
    },
    {
      "inputs": [
        {
          "internalType": "address",
          "name": "operator",
          "type": "address"
        },
        {
          "internalType": "bool",
          "name": "approved",
          "type": "bool"
        }
      ],
      "name": "setApprovalForAll",
      "outputs": [],
      "stateMutability": "nonpayable",
      "type": "function"
    },
    {
      "inputs": [
        {
          "internalType": "address",
          "name": "_loanRequest",
          "type": "address"
        },
        {
          "internalType": "address",
          "name": "_vouchPool",
          "type": "address"
        }
      ],
      "name": "setAuthorisedContracts",
      "outputs": [],
      "stateMutability": "nonpayable",
      "type": "function"
    },
    {
      "inputs": [
        {
          "internalType": "bytes4",
          "name": "interfaceId",
          "type": "bytes4"
        }
      ],
      "name": "supportsInterface",
      "outputs": [
        {
          "internalType": "bool",
          "name": "",
          "type": "bool"
        }
      ],
      "stateMutability": "view",
      "type": "function"
    },
    {
      "inputs": [],
      "name": "symbol",
      "outputs": [
        {
          "internalType": "string",
          "name": "",
          "type": "string"
        }
      ],
      "stateMutability": "view",
      "type": "function"
    },
    {
      "inputs": [
        {
          "internalType": "uint256",
          "name": "tokenId",
          "type": "uint256"
        }
      ],
      "name": "tokenURI",
      "outputs": [
        {
          "internalType": "string",
          "name": "",
          "type": "string"
        }
      ],
      "stateMutability": "view",
      "type": "function"
    },
    {
      "inputs": [
        {
          "internalType": "address",
          "name": "",
          "type": "address"
        },
        {
          "internalType": "address",
          "name": "",
          "type": "address"
        },
        {
          "internalType": "uint256",
          "name": "",
          "type": "uint256"
        }
      ],
      "name": "transferFrom",
      "outputs": [],
      "stateMutability": "pure",
      "type": "function"
    },
    {
      "inputs": [
        {
          "internalType": "address",
          "name": "newOwner",
          "type": "address"
        }
      ],
      "name": "transferOwnership",
      "outputs": [],
      "stateMutability": "nonpayable",
      "type": "function"
    },
    {
      "inputs": [],
      "name": "vouchPoolContract",
      "outputs": [
        {
          "internalType": "address",
          "name": "",
          "type": "address"
        }
      ],
      "stateMutability": "view",
      "type": "function"
    }
  ],
  "bytecode": "0x60806040523480156200001157600080fd5b506040518060400160405280601681526020017f5472757374436972636c652052657075746174696f6e000000000000000000008152506040518060400160405280600581526020017f544352455000000000000000000000000000000000000000000000000000000081525081600090816200008f919062000412565b508060019081620000a1919062000412565b505050620000c4620000b8620000ca60201b60201c565b620000d260201b60201c565b620004f9565b600033905090565b6000600660009054906101000a900473ffffffffffffffffffffffffffffffffffffffff16905081600660006101000a81548173ffffffffffffffffffffffffffffffffffffffff021916908373ffffffffffffffffffffffffffffffffffffffff1602179055508173ffffffffffffffffffffffffffffffffffffffff168173ffffffffffffffffffffffffffffffffffffffff167f8be0079c531659141344cd1fd0a4f28419497f9722a3daafe3b4186f6b6457e060405160405180910390a35050565b600081519050919050565b7f4e487b7100000000000000000000000000000000000000000000000000000000600052604160045260246000fd5b7f4e487b7100000000000000000000000000000000000000000000000000000000600052602260045260246000fd5b600060028204905060018216806200021a57607f821691505b60208210810362000230576200022f620001d2565b5b50919050565b60008190508160005260206000209050919050565b60006020601f8301049050919050565b600082821b905092915050565b6000600883026200029a7fffffffffffffffffffffffffffffffffffffffffffffffffffffffffffffffff826200025b565b620002a686836200025b565b95508019841693508086168417925050509392505050565b6000819050919050565b6000819050919050565b6000620002f3620002ed620002e784620002be565b620002c8565b620002be565b9050919050565b6000819050919050565b6200030f83620002d2565b620003276200031e82620002fa565b84845462000268565b825550505050565b600090565b6200033e6200032f565b6200034b81848462000304565b505050565b5b8181101562000373576200036760008262000334565b60018101905062000351565b5050565b601f821115620003c2576200038c8162000236565b62000397846200024b565b81016020851015620003a7578190505b620003bf620003b6856200024b565b83018262000350565b50505b505050565b600082821c905092915050565b6000620003e760001984600802620003c7565b1980831691505092915050565b6000620004028383620003d4565b9150826002028217905092915050565b6200041d8262000198565b67ffffffffffffffff811115620004395762000438620001a3565b5b62000445825462000201565b6200045282828562000377565b600060209050601f8311600181146200048a576000841562000475578287015190505b620004818582620003f4565b865550620004f1565b601f1984166200049a8662000236565b60005b82811015620004c4578489015182556001820191506020850194506020810190506200049d565b86831015620004e45784890151620004e0601f891682620003d4565b8355505b6001600288020188555050505b505050505050565b613cc980620005096000396000f3fe608060405234801561001057600080fd5b50600436106101da5760003560e01c806370a0823111610104578063c36fe3d6116100a2578063d47875d011610071578063d47875d014610569578063dd6865e514610599578063e985e9c5146105b5578063f2fde38b146105e5576101da565b8063c36fe3d6146104c9578063c87b56dd146104ff578063cc9aa9d81461052f578063cd4544f21461054d576101da565b806395d89b41116100de57806395d89b4114610457578063a22cb46514610475578063b88d4fde14610491578063baae45e1146104ad576101da565b806370a08231146103ff578063715018a61461042f5780638da5cb5b14610439576101da565b8063239c3df81161017c5780635435031f1161014b5780635435031f1461035357806354cc5c1c1461036f5780636352211e1461039f5780636511bf2e146103cf576101da565b8063239c3df8146102e157806323b872dd146102fd578063324196b41461031957806342842e0e14610337576101da565b8063081812fc116101b8578063081812fc14610249578063095ea7b3146102795780630f53a470146102955780630f5c12d3146102c5576101da565b806301ffc9a7146101df5780630672788e1461020f57806306fdde031461022b575b600080fd5b6101f960048036038101906101f49190612b51565b610601565b6040516102069190612b99565b60405180910390f35b61022960048036038101906102249190612c12565b6106e3565b005b610233610771565b6040516102409190612ce2565b60405180910390f35b610263600480360381019061025e9190612d3a565b610803565b6040516102709190612d76565b60405180910390f35b610293600480360381019061028e9190612d91565b610849565b005b6102af60048036038101906102aa9190612dd1565b610960565b6040516102bc9190612e9b565b60405180910390f35b6102df60048036038101906102da9190612dd1565b610a18565b005b6102fb60048036038101906102f69190612d91565b610bda565b005b61031760048036038101906103129190612eb6565b610e33565b005b610321610e6e565b60405161032e9190612d76565b60405180910390f35b610351600480360381019061034c9190612eb6565b610e94565b005b61036d60048036038101906103689190612dd1565b610eb4565b005b61038960048036038101906103849190612dd1565b6110d7565b6040516103969190612f18565b60405180910390f35b6103b960048036038101906103b49190612d3a565b6112fe565b6040516103c69190612d76565b60405180910390f35b6103e960048036038101906103e49190612dd1565b611384565b6040516103f69190612f18565b60405180910390f35b61041960048036038101906104149190612dd1565b61139c565b6040516104269190612f18565b60405180910390f35b610437611453565b005b610441611467565b60405161044e9190612d76565b60405180910390f35b61045f611491565b60405161046c9190612ce2565b60405180910390f35b61048f600480360381019061048a9190612f5f565b611523565b005b6104ab60048036038101906104a691906130d4565b611539565b005b6104c760048036038101906104c29190612d91565b611574565b005b6104e360048036038101906104de9190612d3a565b611752565b6040516104f69796959493929190613157565b60405180910390f35b61051960048036038101906105149190612d3a565b611794565b6040516105269190612ce2565b60405180910390f35b6105376117fc565b6040516105449190612d76565b60405180910390f35b61056760048036038101906105629190612d91565b611822565b005b610583600480360381019061057e9190612dd1565b611a7b565b6040516105909190612f18565b60405180910390f35b6105b360048036038101906105ae9190612dd1565b611c72565b005b6105cf60048036038101906105ca9190612c12565b611e69565b6040516105dc9190612b99565b60405180910390f35b6105ff60048036038101906105fa9190612dd1565b611efd565b005b60007f80ac58cd000000000000000000000000000000000000000000000000000000007bffffffffffffffffffffffffffffffffffffffffffffffffffffffff1916827bffffffffffffffffffffffffffffffffffffffffffffffffffffffff191614806106cc57507f5b5e139f000000000000000000000000000000000000000000000000000000007bffffffffffffffffffffffffffffffffffffffffffffffffffffffff1916827bffffffffffffffffffffffffffffffffffffffffffffffffffffffff1916145b806106dc57506106db82611f80565b5b9050919050565b6106eb611fea565b81600a60006101000a81548173ffffffffffffffffffffffffffffffffffffffff021916908373ffffffffffffffffffffffffffffffffffffffff16021790555080600b60006101000a81548173ffffffffffffffffffffffffffffffffffffffff021916908373ffffffffffffffffffffffffffffffffffffffff1602179055505050565b606060008054610780906131f5565b80601f01602080910402602001604051908101604052809291908181526020018280546107ac906131f5565b80156107f95780601f106107ce576101008083540402835291602001916107f9565b820191906000526020600020905b8154815290600101906020018083116107dc57829003601f168201915b5050505050905090565b600061080e82612068565b6004600083815260200190815260200160002060009054906101000a900473ffffffffffffffffffffffffffffffffffffffff169050919050565b6000610854826112fe565b90508073ffffffffffffffffffffffffffffffffffffffff168373ffffffffffffffffffffffffffffffffffffffff16036108c4576040517f08c379a00000000000000000000000000000000000000000000000000000000081526004016108bb90613298565b60405180910390fd5b8073ffffffffffffffffffffffffffffffffffffffff166108e36120b3565b73ffffffffffffffffffffffffffffffffffffffff16148061091257506109118161090c6120b3565b611e69565b5b610951576040517f08c379a00000000000000000000000000000000000000000000000000000000081526004016109489061332a565b60405180910390fd5b61095b83836120bb565b505050565b610968612aa8565b6000600860008473ffffffffffffffffffffffffffffffffffffffff1673ffffffffffffffffffffffffffffffffffffffff168152602001908152602001600020549050600960008281526020019081526020016000206040518060e0016040529081600082015481526020016001820154815260200160028201548152602001600382015481526020016004820154815260200160058201548152602001600682015481525050915050919050565b600a60009054906101000a900473ffffffffffffffffffffffffffffffffffffffff1673ffffffffffffffffffffffffffffffffffffffff163373ffffffffffffffffffffffffffffffffffffffff161480610ac15750600b60009054906101000a900473ffffffffffffffffffffffffffffffffffffffff1673ffffffffffffffffffffffffffffffffffffffff163373ffffffffffffffffffffffffffffffffffffffff16145b80610afe5750610acf611467565b73ffffffffffffffffffffffffffffffffffffffff163373ffffffffffffffffffffffffffffffffffffffff16145b610b3d576040517f08c379a0000000000000000000000000000000000000000000000000000000008152600401610b3490613396565b60405180910390fd5b6000610b488261139c565b03610bd75760076000815480929190610b60906133e5565b919050555060006007549050610b768282612174565b80600860008473ffffffffffffffffffffffffffffffffffffffff1673ffffffffffffffffffffffffffffffffffffffff16815260200190815260200160002081905550426009600083815260200190815260200160002060060181905550505b50565b600a60009054906101000a900473ffffffffffffffffffffffffffffffffffffffff1673ffffffffffffffffffffffffffffffffffffffff163373ffffffffffffffffffffffffffffffffffffffff161480610c835750600b60009054906101000a900473ffffffffffffffffffffffffffffffffffffffff1673ffffffffffffffffffffffffffffffffffffffff163373ffffffffffffffffffffffffffffffffffffffff16145b80610cc05750610c91611467565b73ffffffffffffffffffffffffffffffffffffffff163373ffffffffffffffffffffffffffffffffffffffff16145b610cff576040517f08c379a0000000000000000000000000000000000000000000000000000000008152600401610cf690613396565b60405180910390fd5b6000600860008473ffffffffffffffffffffffffffffffffffffffff1673ffffffffffffffffffffffffffffffffffffffff16815260200190815260200160002054905060008103610d86576040517f08c379a0000000000000000000000000000000000000000000000000000000008152600401610d7d90613479565b60405180910390fd5b600960008281526020019081526020016000206000016000815480929190610dad906133e5565b919050555081600960008381526020019081526020016000206003016000828254610dd89190613499565b925050819055508273ffffffffffffffffffffffffffffffffffffffff167fcd1a12ecb9eefeb52825050dd2d30ccc9a4bc1466bd71e9a4c376548b3b71af66001604051610e26919061351f565b60405180910390a2505050565b6040517f08c379a0000000000000000000000000000000000000000000000000000000008152600401610e6590613586565b60405180910390fd5b600a60009054906101000a900473ffffffffffffffffffffffffffffffffffffffff1681565b610eaf83838360405180602001604052806000815250611539565b505050565b600a60009054906101000a900473ffffffffffffffffffffffffffffffffffffffff1673ffffffffffffffffffffffffffffffffffffffff163373ffffffffffffffffffffffffffffffffffffffff161480610f5d5750600b60009054906101000a900473ffffffffffffffffffffffffffffffffffffffff1673ffffffffffffffffffffffffffffffffffffffff163373ffffffffffffffffffffffffffffffffffffffff16145b80610f9a5750610f6b611467565b73ffffffffffffffffffffffffffffffffffffffff163373ffffffffffffffffffffffffffffffffffffffff16145b610fd9576040517f08c379a0000000000000000000000000000000000000000000000000000000008152600401610fd090613396565b60405180910390fd5b6000600860008373ffffffffffffffffffffffffffffffffffffffff1673ffffffffffffffffffffffffffffffffffffffff1681526020019081526020016000205490506000810361102b57506110d4565b600960008281526020019081526020016000206004016000815480929190611052906133e5565b919050555060096000828152602001908152602001600020600501600081548092919061107e906133e5565b91905055508173ffffffffffffffffffffffffffffffffffffffff167fcd1a12ecb9eefeb52825050dd2d30ccc9a4bc1466bd71e9a4c376548b3b71af660036040516110ca91906135e1565b60405180910390a2505b50565b600080600860008473ffffffffffffffffffffffffffffffffffffffff1673ffffffffffffffffffffffffffffffffffffffff168152602001908152602001600020549050600080821461129e576000600960008481526020019081526020016000206040518060e001604052908160008201548152602001600182015481526020016002820154815260200160038201548152602001600482015481526020016005820154815260200160068201548152505090506000600882600001516111a091906135fc565b905060288111156111b057602890505b600082604001511115611203576064601e8360400151606485606001516111d791906135fc565b6111e1919061366d565b6111eb91906135fc565b6111f5919061366d565b816112009190613499565b90505b60006019836020015161121691906135fc565b90508181101561123157808261122c919061369e565b611234565b60005b9150600083608001511115611289576064600a846080015160648660a0015161125d91906135fc565b611267919061366d565b61127191906135fc565b61127b919061366d565b826112869190613499565b91505b606482111561129757606491505b8193505050505b600081036112b75766b1a2bc2ec50000925050506112f9565b601481116112d1576702c68af0bb140000925050506112f9565b603281116112eb576706f05b59d3b20000925050506112f9565b670de0b6b3a7640000925050505b919050565b60008061130a83612192565b9050600073ffffffffffffffffffffffffffffffffffffffff168173ffffffffffffffffffffffffffffffffffffffff160361137b576040517f08c379a00000000000000000000000000000000000000000000000000000000081526004016113729061371e565b60405180910390fd5b80915050919050565b60086020528060005260406000206000915090505481565b60008073ffffffffffffffffffffffffffffffffffffffff168273ffffffffffffffffffffffffffffffffffffffff160361140c576040517f08c379a0000000000000000000000000000000000000000000000000000000008152600401611403906137b0565b60405180910390fd5b600360008373ffffffffffffffffffffffffffffffffffffffff1673ffffffffffffffffffffffffffffffffffffffff168152602001908152602001600020549050919050565b61145b611fea565b61146560006121cf565b565b6000600660009054906101000a900473ffffffffffffffffffffffffffffffffffffffff16905090565b6060600180546114a0906131f5565b80601f01602080910402602001604051908101604052809291908181526020018280546114cc906131f5565b80156115195780601f106114ee57610100808354040283529160200191611519565b820191906000526020600020905b8154815290600101906020018083116114fc57829003601f168201915b5050505050905090565b61153561152e6120b3565b8383612295565b5050565b6040517f08c379a000000000000000000000000000000000000000000000000000000000815260040161156b90613586565b60405180910390fd5b600a60009054906101000a900473ffffffffffffffffffffffffffffffffffffffff1673ffffffffffffffffffffffffffffffffffffffff163373ffffffffffffffffffffffffffffffffffffffff16148061161d5750600b60009054906101000a900473ffffffffffffffffffffffffffffffffffffffff1673ffffffffffffffffffffffffffffffffffffffff163373ffffffffffffffffffffffffffffffffffffffff16145b8061165a575061162b611467565b73ffffffffffffffffffffffffffffffffffffffff163373ffffffffffffffffffffffffffffffffffffffff16145b611699576040517f08c379a000000000000000000000000000000000000000000000000000000000815260040161169090613396565b60405180910390fd5b6000600860008473ffffffffffffffffffffffffffffffffffffffff1673ffffffffffffffffffffffffffffffffffffffff16815260200190815260200160002054905060008103611720576040517f08c379a000000000000000000000000000000000000000000000000000000000815260040161171790613479565b60405180910390fd5b816009600083815260200190815260200160002060020160008282546117469190613499565b92505081905550505050565b60096020528060005260406000206000915090508060000154908060010154908060020154908060030154908060040154908060050154908060060154905087565b606061179f82612068565b60006117a9612401565b905060008151116117c957604051806020016040528060008152506117f4565b806117d384612418565b6040516020016117e492919061380c565b6040516020818303038152906040525b915050919050565b600b60009054906101000a900473ffffffffffffffffffffffffffffffffffffffff1681565b600a60009054906101000a900473ffffffffffffffffffffffffffffffffffffffff1673ffffffffffffffffffffffffffffffffffffffff163373ffffffffffffffffffffffffffffffffffffffff1614806118cb5750600b60009054906101000a900473ffffffffffffffffffffffffffffffffffffffff1673ffffffffffffffffffffffffffffffffffffffff163373ffffffffffffffffffffffffffffffffffffffff16145b8061190857506118d9611467565b73ffffffffffffffffffffffffffffffffffffffff163373ffffffffffffffffffffffffffffffffffffffff16145b611947576040517f08c379a000000000000000000000000000000000000000000000000000000000815260040161193e90613396565b60405180910390fd5b6000600860008473ffffffffffffffffffffffffffffffffffffffff1673ffffffffffffffffffffffffffffffffffffffff168152602001908152602001600020549050600081036119ce576040517f08c379a00000000000000000000000000000000000000000000000000000000081526004016119c590613479565b60405180910390fd5b6009600082815260200190815260200160002060010160008154809291906119f5906133e5565b919050555081600960008381526020019081526020016000206002016000828254611a209190613499565b925050819055508273ffffffffffffffffffffffffffffffffffffffff167fcd1a12ecb9eefeb52825050dd2d30ccc9a4bc1466bd71e9a4c376548b3b71af66002604051611a6e919061386b565b60405180910390a2505050565b600080600860008473ffffffffffffffffffffffffffffffffffffffff1673ffffffffffffffffffffffffffffffffffffffff16815260200190815260200160002054905060008103611ad2576000915050611c6d565b6000600960008381526020019081526020016000206040518060e0016040529081600082015481526020016001820154815260200160028201548152602001600382015481526020016004820154815260200160058201548152602001600682015481525050905060008060088360000151611b4e91906135fc565b90506028811115611b5e57602890505b8082611b6a9190613499565b9150600083604001511115611bc5576000836040015160648560600151611b9191906135fc565b611b9b919061366d565b90506064601e82611bac91906135fc565b611bb6919061366d565b83611bc19190613499565b9250505b600060198460200151611bd891906135fc565b9050828110611bef57600095505050505050611c6d565b8083611bfb919061369e565b9250600084608001511115611c56576000846080015160648660a00151611c2291906135fc565b611c2c919061366d565b90506064600a82611c3d91906135fc565b611c47919061366d565b84611c529190613499565b9350505b6064831115611c6457606492505b82955050505050505b919050565b600a60009054906101000a900473ffffffffffffffffffffffffffffffffffffffff1673ffffffffffffffffffffffffffffffffffffffff163373ffffffffffffffffffffffffffffffffffffffff161480611d1b5750600b60009054906101000a900473ffffffffffffffffffffffffffffffffffffffff1673ffffffffffffffffffffffffffffffffffffffff163373ffffffffffffffffffffffffffffffffffffffff16145b80611d585750611d29611467565b73ffffffffffffffffffffffffffffffffffffffff163373ffffffffffffffffffffffffffffffffffffffff16145b611d97576040517f08c379a0000000000000000000000000000000000000000000000000000000008152600401611d8e90613396565b60405180910390fd5b6000600860008373ffffffffffffffffffffffffffffffffffffffff1673ffffffffffffffffffffffffffffffffffffffff16815260200190815260200160002054905060008103611de95750611e66565b600960008281526020019081526020016000206004016000815480929190611e10906133e5565b91905055508173ffffffffffffffffffffffffffffffffffffffff167fcd1a12ecb9eefeb52825050dd2d30ccc9a4bc1466bd71e9a4c376548b3b71af66004604051611e5c91906138c1565b60405180910390a2505b50565b6000600560008473ffffffffffffffffffffffffffffffffffffffff1673ffffffffffffffffffffffffffffffffffffffff16815260200190815260200160002060008373ffffffffffffffffffffffffffffffffffffffff1673ffffffffffffffffffffffffffffffffffffffff16815260200190815260200160002060009054906101000a900460ff16905092915050565b611f05611fea565b600073ffffffffffffffffffffffffffffffffffffffff168173ffffffffffffffffffffffffffffffffffffffff1603611f74576040517f08c379a0000000000000000000000000000000000000000000000000000000008152600401611f6b9061394e565b60405180910390fd5b611f7d816121cf565b50565b60007f01ffc9a7000000000000000000000000000000000000000000000000000000007bffffffffffffffffffffffffffffffffffffffffffffffffffffffff1916827bffffffffffffffffffffffffffffffffffffffffffffffffffffffff1916149050919050565b611ff26120b3565b73ffffffffffffffffffffffffffffffffffffffff16612010611467565b73ffffffffffffffffffffffffffffffffffffffff1614612066576040517f08c379a000000000000000000000000000000000000000000000000000000000815260040161205d906139ba565b60405180910390fd5b565b612071816124e6565b6120b0576040517f08c379a00000000000000000000000000000000000000000000000000000000081526004016120a79061371e565b60405180910390fd5b50565b600033905090565b816004600083815260200190815260200160002060006101000a81548173ffffffffffffffffffffffffffffffffffffffff021916908373ffffffffffffffffffffffffffffffffffffffff160217905550808273ffffffffffffffffffffffffffffffffffffffff1661212e836112fe565b73ffffffffffffffffffffffffffffffffffffffff167f8c5be1e5ebec7d5bd14f71427d1e84f3dd0314c0f7b2291e5b200ac8c7c3b92560405160405180910390a45050565b61218e828260405180602001604052806000815250612527565b5050565b60006002600083815260200190815260200160002060009054906101000a900473ffffffffffffffffffffffffffffffffffffffff169050919050565b6000600660009054906101000a900473ffffffffffffffffffffffffffffffffffffffff16905081600660006101000a81548173ffffffffffffffffffffffffffffffffffffffff021916908373ffffffffffffffffffffffffffffffffffffffff1602179055508173ffffffffffffffffffffffffffffffffffffffff168173ffffffffffffffffffffffffffffffffffffffff167f8be0079c531659141344cd1fd0a4f28419497f9722a3daafe3b4186f6b6457e060405160405180910390a35050565b8173ffffffffffffffffffffffffffffffffffffffff168373ffffffffffffffffffffffffffffffffffffffff1603612303576040517f08c379a00000000000000000000000000000000000000000000000000000000081526004016122fa90613a26565b60405180910390fd5b80600560008573ffffffffffffffffffffffffffffffffffffffff1673ffffffffffffffffffffffffffffffffffffffff16815260200190815260200160002060008473ffffffffffffffffffffffffffffffffffffffff1673ffffffffffffffffffffffffffffffffffffffff16815260200190815260200160002060006101000a81548160ff0219169083151502179055508173ffffffffffffffffffffffffffffffffffffffff168373ffffffffffffffffffffffffffffffffffffffff167f17307eab39ab6107e8899845ad3d59bd9653f200f220920489ca2b5937696c31836040516123f49190612b99565b60405180910390a3505050565b606060405180602001604052806000815250905090565b60606000600161242784612582565b01905060008167ffffffffffffffff81111561244657612445612fa9565b5b6040519080825280601f01601f1916602001820160405280156124785781602001600182028036833780820191505090505b509050600082602001820190505b6001156124db578080600190039150507f3031323334353637383961626364656600000000000000000000000000000000600a86061a8153600a85816124cf576124ce61363e565b5b04945060008503612486575b819350505050919050565b60008073ffffffffffffffffffffffffffffffffffffffff1661250883612192565b73ffffffffffffffffffffffffffffffffffffffff1614159050919050565b61253183836126d5565b61253e60008484846128f2565b61257d576040517f08c379a000000000000000000000000000000000000000000000000000000000815260040161257490613ab8565b60405180910390fd5b505050565b600080600090507a184f03e93ff9f4daa797ed6e38ed64bf6a1f01000000000000000083106125e0577a184f03e93ff9f4daa797ed6e38ed64bf6a1f01000000000000000083816125d6576125d561363e565b5b0492506040810190505b6d04ee2d6d415b85acef8100000000831061261d576d04ee2d6d415b85acef810000000083816126135761261261363e565b5b0492506020810190505b662386f26fc10000831061264c57662386f26fc1000083816126425761264161363e565b5b0492506010810190505b6305f5e1008310612675576305f5e100838161266b5761266a61363e565b5b0492506008810190505b612710831061269a5761271083816126905761268f61363e565b5b0492506004810190505b606483106126bd57606483816126b3576126b261363e565b5b0492506002810190505b600a83106126cc576001810190505b80915050919050565b600073ffffffffffffffffffffffffffffffffffffffff168273ffffffffffffffffffffffffffffffffffffffff1603612744576040517f08c379a000000000000000000000000000000000000000000000000000000000815260040161273b90613b24565b60405180910390fd5b61274d816124e6565b1561278d576040517f08c379a000000000000000000000000000000000000000000000000000000000815260040161278490613b90565b60405180910390fd5b61279b600083836001612a79565b6127a4816124e6565b156127e4576040517f08c379a00000000000000000000000000000000000000000000000000000000081526004016127db90613b90565b60405180910390fd5b6001600360008473ffffffffffffffffffffffffffffffffffffffff1673ffffffffffffffffffffffffffffffffffffffff16815260200190815260200160002060008282540192505081905550816002600083815260200190815260200160002060006101000a81548173ffffffffffffffffffffffffffffffffffffffff021916908373ffffffffffffffffffffffffffffffffffffffff160217905550808273ffffffffffffffffffffffffffffffffffffffff16600073ffffffffffffffffffffffffffffffffffffffff167fddf252ad1be2c89b69c2b068fc378daa952ba7f163c4a11628f55a4df523b3ef60405160405180910390a46128ee600083836001612a7f565b5050565b60006129138473ffffffffffffffffffffffffffffffffffffffff16612a85565b15612a6c578373ffffffffffffffffffffffffffffffffffffffff1663150b7a0261293c6120b3565b8786866040518563ffffffff1660e01b815260040161295e9493929190613c05565b6020604051808303816000875af192505050801561299a57506040513d601f19601f820116820180604052508101906129979190613c66565b60015b612a1c573d80600081146129ca576040519150601f19603f3d011682016040523d82523d6000602084013e6129cf565b606091505b506000815103612a14576040517f08c379a0000000000000000000000000000000000000000000000000000000008152600401612a0b90613ab8565b60405180910390fd5b805181602001fd5b63150b7a0260e01b7bffffffffffffffffffffffffffffffffffffffffffffffffffffffff1916817bffffffffffffffffffffffffffffffffffffffffffffffffffffffff191614915050612a71565b600190505b949350505050565b50505050565b50505050565b6000808273ffffffffffffffffffffffffffffffffffffffff163b119050919050565b6040518060e00160405280600081526020016000815260200160008152602001600081526020016000815260200160008152602001600081525090565b6000604051905090565b600080fd5b600080fd5b60007fffffffff0000000000000000000000000000000000000000000000000000000082169050919050565b612b2e81612af9565b8114612b3957600080fd5b50565b600081359050612b4b81612b25565b92915050565b600060208284031215612b6757612b66612aef565b5b6000612b7584828501612b3c565b91505092915050565b60008115159050919050565b612b9381612b7e565b82525050565b6000602082019050612bae6000830184612b8a565b92915050565b600073ffffffffffffffffffffffffffffffffffffffff82169050919050565b6000612bdf82612bb4565b9050919050565b612bef81612bd4565b8114612bfa57600080fd5b50565b600081359050612c0c81612be6565b92915050565b60008060408385031215612c2957612c28612aef565b5b6000612c3785828601612bfd565b9250506020612c4885828601612bfd565b9150509250929050565b600081519050919050565b600082825260208201905092915050565b60005b83811015612c8c578082015181840152602081019050612c71565b60008484015250505050565b6000601f19601f8301169050919050565b6000612cb482612c52565b612cbe8185612c5d565b9350612cce818560208601612c6e565b612cd781612c98565b840191505092915050565b60006020820190508181036000830152612cfc8184612ca9565b905092915050565b6000819050919050565b612d1781612d04565b8114612d2257600080fd5b50565b600081359050612d3481612d0e565b92915050565b600060208284031215612d5057612d4f612aef565b5b6000612d5e84828501612d25565b91505092915050565b612d7081612bd4565b82525050565b6000602082019050612d8b6000830184612d67565b92915050565b60008060408385031215612da857612da7612aef565b5b6000612db685828601612bfd565b9250506020612dc785828601612d25565b9150509250929050565b600060208284031215612de757612de6612aef565b5b6000612df584828501612bfd565b91505092915050565b612e0781612d04565b82525050565b60e082016000820151612e236000850182612dfe565b506020820151612e366020850182612dfe565b506040820151612e496040850182612dfe565b506060820151612e5c6060850182612dfe565b506080820151612e6f6080850182612dfe565b5060a0820151612e8260a0850182612dfe565b5060c0820151612e9560c0850182612dfe565b50505050565b600060e082019050612eb06000830184612e0d565b92915050565b600080600060608486031215612ecf57612ece612aef565b5b6000612edd86828701612bfd565b9350506020612eee86828701612bfd565b9250506040612eff86828701612d25565b9150509250925092565b612f1281612d04565b82525050565b6000602082019050612f2d6000830184612f09565b92915050565b612f3c81612b7e565b8114612f4757600080fd5b50565b600081359050612f5981612f33565b92915050565b60008060408385031215612f7657612f75612aef565b5b6000612f8485828601612bfd565b9250506020612f9585828601612f4a565b9150509250929050565b600080fd5b600080fd5b7f4e487b7100000000000000000000000000000000000000000000000000000000600052604160045260246000fd5b612fe182612c98565b810181811067ffffffffffffffff8211171561300057612fff612fa9565b5b80604052505050565b6000613013612ae5565b905061301f8282612fd8565b919050565b600067ffffffffffffffff82111561303f5761303e612fa9565b5b61304882612c98565b9050602081019050919050565b82818337600083830152505050565b600061307761307284613024565b613009565b90508281526020810184848401111561309357613092612fa4565b5b61309e848285613055565b509392505050565b600082601f8301126130bb576130ba612f9f565b5b81356130cb848260208601613064565b91505092915050565b600080600080608085870312156130ee576130ed612aef565b5b60006130fc87828801612bfd565b945050602061310d87828801612bfd565b935050604061311e87828801612d25565b925050606085013567ffffffffffffffff81111561313f5761313e612af4565b5b61314b878288016130a6565b91505092959194509250565b600060e08201905061316c600083018a612f09565b6131796020830189612f09565b6131866040830188612f09565b6131936060830187612f09565b6131a06080830186612f09565b6131ad60a0830185612f09565b6131ba60c0830184612f09565b98975050505050505050565b7f4e487b7100000000000000000000000000000000000000000000000000000000600052602260045260246000fd5b6000600282049050600182168061320d57607f821691505b6020821081036132205761321f6131c6565b5b50919050565b7f4552433732313a20617070726f76616c20746f2063757272656e74206f776e6560008201527f7200000000000000000000000000000000000000000000000000000000000000602082015250565b6000613282602183612c5d565b915061328d82613226565b604082019050919050565b600060208201905081810360008301526132b181613275565b9050919050565b7f4552433732313a20617070726f76652063616c6c6572206973206e6f7420746f60008201527f6b656e206f776e6572206f7220617070726f76656420666f7220616c6c000000602082015250565b6000613314603d83612c5d565b915061331f826132b8565b604082019050919050565b6000602082019050818103600083015261334381613307565b9050919050565b7f4e6f7420617574686f7269736564000000000000000000000000000000000000600082015250565b6000613380600e83612c5d565b915061338b8261334a565b602082019050919050565b600060208201905081810360008301526133af81613373565b9050919050565b7f4e487b7100000000000000000000000000000000000000000000000000000000600052601160045260246000fd5b60006133f082612d04565b91507fffffffffffffffffffffffffffffffffffffffffffffffffffffffffffffffff8203613422576134216133b6565b5b600182019050919050565b7f4e6f20746f6b656e000000000000000000000000000000000000000000000000600082015250565b6000613463600883612c5d565b915061346e8261342d565b602082019050919050565b6000602082019050818103600083015261349281613456565b9050919050565b60006134a482612d04565b91506134af83612d04565b92508282019050808211156134c7576134c66133b6565b5b92915050565b6000819050919050565b600060ff82169050919050565b6000819050919050565b60006135096135046134ff846134cd565b6134e4565b6134d7565b9050919050565b613519816134ee565b82525050565b60006020820190506135346000830184613510565b92915050565b7f536f756c626f756e643a206e6f6e2d7472616e7366657261626c650000000000600082015250565b6000613570601b83612c5d565b915061357b8261353a565b602082019050919050565b6000602082019050818103600083015261359f81613563565b9050919050565b6000819050919050565b60006135cb6135c66135c1846135a6565b6134e4565b6134d7565b9050919050565b6135db816135b0565b82525050565b60006020820190506135f660008301846135d2565b92915050565b600061360782612d04565b915061361283612d04565b925082820261362081612d04565b91508282048414831517613637576136366133b6565b5b5092915050565b7f4e487b7100000000000000000000000000000000000000000000000000000000600052601260045260246000fd5b600061367882612d04565b915061368383612d04565b9250826136935761369261363e565b5b828204905092915050565b60006136a982612d04565b91506136b483612d04565b92508282039050818111156136cc576136cb6133b6565b5b92915050565b7f4552433732313a20696e76616c696420746f6b656e2049440000000000000000600082015250565b6000613708601883612c5d565b9150613713826136d2565b602082019050919050565b60006020820190508181036000830152613737816136fb565b9050919050565b7f4552433732313a2061646472657373207a65726f206973206e6f74206120766160008201527f6c6964206f776e65720000000000000000000000000000000000000000000000602082015250565b600061379a602983612c5d565b91506137a58261373e565b604082019050919050565b600060208201905081810360008301526137c98161378d565b9050919050565b600081905092915050565b60006137e682612c52565b6137f081856137d0565b9350613800818560208601612c6e565b80840191505092915050565b600061381882856137db565b915061382482846137db565b91508190509392505050565b6000819050919050565b600061385561385061384b84613830565b6134e4565b6134d7565b9050919050565b6138658161383a565b82525050565b6000602082019050613880600083018461385c565b92915050565b6000819050919050565b60006138ab6138a66138a184613886565b6134e4565b6134d7565b9050919050565b6138bb81613890565b82525050565b60006020820190506138d660008301846138b2565b92915050565b7f4f776e61626c653a206e6577206f776e657220697320746865207a65726f206160008201527f6464726573730000000000000000000000000000000000000000000000000000602082015250565b6000613938602683612c5d565b9150613943826138dc565b604082019050919050565b600060208201905081810360008301526139678161392b565b9050919050565b7f4f776e61626c653a2063616c6c6572206973206e6f7420746865206f776e6572600082015250565b60006139a4602083612c5d565b91506139af8261396e565b602082019050919050565b600060208201905081810360008301526139d381613997565b9050919050565b7f4552433732313a20617070726f766520746f2063616c6c657200000000000000600082015250565b6000613a10601983612c5d565b9150613a1b826139da565b602082019050919050565b60006020820190508181036000830152613a3f81613a03565b9050919050565b7f4552433732313a207472616e7366657220746f206e6f6e20455243373231526560008201527f63656976657220696d706c656d656e7465720000000000000000000000000000602082015250565b6000613aa2603283612c5d565b9150613aad82613a46565b604082019050919050565b60006020820190508181036000830152613ad181613a95565b9050919050565b7f4552433732313a206d696e7420746f20746865207a65726f2061646472657373600082015250565b6000613b0e602083612c5d565b9150613b1982613ad8565b602082019050919050565b60006020820190508181036000830152613b3d81613b01565b9050919050565b7f4552433732313a20746f6b656e20616c7265616479206d696e74656400000000600082015250565b6000613b7a601c83612c5d565b9150613b8582613b44565b602082019050919050565b60006020820190508181036000830152613ba981613b6d565b9050919050565b600081519050919050565b600082825260208201905092915050565b6000613bd782613bb0565b613be18185613bbb565b9350613bf1818560208601612c6e565b613bfa81612c98565b840191505092915050565b6000608082019050613c1a6000830187612d67565b613c276020830186612d67565b613c346040830185612f09565b8181036060830152613c468184613bcc565b905095945050505050565b600081519050613c6081612b25565b92915050565b600060208284031215613c7c57613c7b612aef565b5b6000613c8a84828501613c51565b9150509291505056fea264697066735822122027ba7c11b551715ce919a4cf88ae8dd65c13c0f9c907691dca787f8c3871812864736f6c63430008140033",
  "linkReferences": {},
  "deployedLinkReferences": {}
}