{
  "_format": "hh-sol-artifact-1",
  "contractName": "VouchPool",
  "sourceName": "contracts/VouchPool.sol",
  "abi": [
    {
      "inputs": [
        {
          "internalType": "address",
          "name": "_reputationToken",
          "type": "address"
        }
      ],
      "stateMutability": "nonpayable",
      "type": "constructor"
    },
    {
      "anonymous": false,
      "inputs": [
        {
          "indexed": true,
          "internalType": "address",
          "name": "previousOwner",
          "type": "address"
        },
        {
          "indexed": true,
          "internalType": "address",
          "name": "newOwner",
          "type": "address"
        }
      ],
      "name": "OwnershipTransferred",
      "type": "event"
    },
    {
      "anonymous": false,
      "inputs": [
        {
          "indexed": true,
          "internalType": "uint256",
          "name": "loanId",
          "type": "uint256"
        },
        {
          "indexed": true,
          "internalType": "address",
          "name": "voucher",
          "type": "address"
        },
        {
          "indexed": false,
          "internalType": "uint256",
          "name": "stake",
          "type": "uint256"
        },
        {
          "indexed": false,
          "internalType": "uint256",
          "name": "yield",
          "type": "uint256"
        }
      ],
      "name": "StakeReleased",
      "type": "event"
    },
    {
      "anonymous": false,
      "inputs": [
        {
          "indexed": true,
          "internalType": "uint256",
          "name": "loanId",
          "type": "uint256"
        },
        {
          "indexed": true,
          "internalType": "address",
          "name": "voucher",
          "type": "address"
        },
        {
          "indexed": false,
          "internalType": "uint256",
          "name": "amount",
          "type": "uint256"
        }
      ],
      "name": "StakeSlashed",
      "type": "event"
    },
    {
      "anonymous": false,
      "inputs": [
        {
          "indexed": true,
          "internalType": "uint256",
          "name": "loanId",
          "type": "uint256"
        },
        {
          "indexed": true,
          "internalType": "address",
          "name": "voucher",
          "type": "address"
        },
        {
          "indexed": false,
          "internalType": "uint256",
          "name": "amount",
          "type": "uint256"
        }
      ],
      "name": "Staked",
      "type": "event"
    },
    {
      "anonymous": false,
      "inputs": [
        {
          "indexed": true,
          "internalType": "uint256",
          "name": "loanId",
          "type": "uint256"
        },
        {
          "indexed": true,
          "internalType": "address",
          "name": "voucher",
          "type": "address"
        }
      ],
      "name": "VouchRequested",
      "type": "event"
    },
    {
      "inputs": [],
      "name": "MIN_COVERAGE_BPS",
      "outputs": [
        {
          "internalType": "uint256",
          "name": "",
          "type": "uint256"
        }
      ],
      "stateMutability": "view",
      "type": "function"
    },
    {
      "inputs": [],
      "name": "VOUCHER_YIELD_SHARE_BPS",
      "outputs": [
        {
          "internalType": "uint256",
          "name": "",
          "type": "uint256"
        }
      ],
      "stateMutability": "view",
      "type": "function"
    },
    {
      "inputs": [
        {
          "internalType": "address",
          "name": "voucher",
          "type": "address"
        }
      ],
      "name": "getStakesByVoucher",
      "outputs": [
        {
          "internalType": "uint256[]",
          "name": "",
          "type": "uint256[]"
        }
      ],
      "stateMutability": "view",
      "type": "function"
    },
    {
      "inputs": [
        {
          "internalType": "uint256",
          "name": "loanId",
          "type": "uint256"
        }
      ],
      "name": "getTotalStaked",
      "outputs": [
        {
          "internalType": "uint256",
          "name": "",
          "type": "uint256"
        }
      ],
      "stateMutability": "view",
      "type": "function"
    },
    {
      "inputs": [
        {
          "internalType": "uint256",
          "name": "loanId",
          "type": "uint256"
        }
      ],
      "name": "getVouchers",
      "outputs": [
        {
          "components": [
            {
              "internalType": "address",
              "name": "wallet",
              "type": "address"
            },
            {
              "internalType": "uint256",
              "name": "stakeAmount",
              "type": "uint256"
            },
            {
              "internalType": "bool",
              "name": "hasStaked",
              "type": "bool"
            }
          ],
          "internalType": "struct VouchPool.VoucherInfo[]",
          "name": "",
          "type": "tuple[]"
        }
      ],
      "stateMutability": "view",
      "type": "function"
    },
    {
      "inputs": [
        {
          "internalType": "uint256",
          "name": "",
          "type": "uint256"
        },
        {
          "internalType": "uint256",
          "name": "",
          "type": "uint256"
        }
      ],
      "name": "invitedVouchers",
      "outputs": [
        {
          "internalType": "address",
          "name": "",
          "type": "address"
        }
      ],
      "stateMutability": "view",
      "type": "function"
    },
    {
      "inputs": [
        {
          "internalType": "uint256",
          "name": "loanId",
          "type": "uint256"
        }
      ],
      "name": "isSufficientlyCovered",
      "outputs": [
        {
          "internalType": "bool",
          "name": "",
          "type": "bool"
        }
      ],
      "stateMutability": "view",
      "type": "function"
    },
    {
      "inputs": [
        {
          "internalType": "uint256",
          "name": "",
          "type": "uint256"
        }
      ],
      "name": "loanAmounts",
      "outputs": [
        {
          "internalType": "uint256",
          "name": "",
          "type": "uint256"
        }
      ],
      "stateMutability": "view",
      "type": "function"
    },
    {
      "inputs": [],
      "name": "loanRequestContract",
      "outputs": [
        {
          "internalType": "address",
          "name": "",
          "type": "address"
        }
      ],
      "stateMutability": "view",
      "type": "function"
    },
    {
      "inputs": [],
      "name": "owner",
      "outputs": [
        {
          "internalType": "address",
          "name": "",
          "type": "address"
        }
      ],
      "stateMutability": "view",
      "type": "function"
    },
    {
      "inputs": [
        {
          "internalType": "uint256",
          "name": "loanId",
          "type": "uint256"
        },
        {
          "internalType": "uint256",
          "name": "loanAmount",
          "type": "uint256"
        },
        {
          "internalType": "address[]",
          "name": "vouchers",
          "type": "address[]"
        }
      ],
      "name": "registerLoan",
      "outputs": [],
      "stateMutability": "nonpayable",
      "type": "function"
    },
    {
      "inputs": [
        {
          "internalType": "uint256",
          "name": "loanId",
          "type": "uint256"
        },
        {
          "internalType": "uint256",
          "name": "interestAmount",
          "type": "uint256"
        }
      ],
      "name": "releaseStakes",
      "outputs": [],
      "stateMutability": "nonpayable",
      "type": "function"
    },
    {
      "inputs": [],
      "name": "renounceOwnership",
      "outputs": [],
      "stateMutability": "nonpayable",
      "type": "function"
    },
    {
      "inputs": [],
      "name": "reputationToken",
      "outputs": [
        {
          "internalType": "contract IReputationToken",
          "name": "",
          "type": "address"
        }
      ],
      "stateMutability": "view",
      "type": "function"
    },
    {
      "inputs": [
        {
          "internalType": "address",
          "name": "_addr",
          "type": "address"
        }
      ],
      "name": "setLoanRequestContract",
      "outputs": [],
      "stateMutability": "nonpayable",
      "type": "function"
    },
    {
      "inputs": [
        {
          "internalType": "uint256",
          "name": "loanId",
          "type": "uint256"
        },
        {
          "internalType": "address payable",
          "name": "lender",
          "type": "address"
        }
      ],
      "name": "slashStakes",
      "outputs": [
        {
          "internalType": "uint256",
          "name": "",
          "type": "uint256"
        }
      ],
      "stateMutability": "nonpayable",
      "type": "function"
    },
    {
      "inputs": [
        {
          "internalType": "uint256",
          "name": "loanId",
          "type": "uint256"
        }
      ],
      "name": "stake",
      "outputs": [],
      "stateMutability": "payable",
      "type": "function"
    },
    {
      "inputs": [
        {
          "internalType": "address",
          "name": "",
          "type": "address"
        },
        {
          "internalType": "uint256",
          "name": "",
          "type": "uint256"
        }
      ],
      "name": "stakesByVoucher",
      "outputs": [
        {
          "internalType": "uint256",
          "name": "",
          "type": "uint256"
        }
      ],
      "stateMutability": "view",
      "type": "function"
    },
    {
      "inputs": [
        {
          "internalType": "uint256",
          "name": "",
          "type": "uint256"
        }
      ],
      "name": "totalStaked",
      "outputs": [
        {
          "internalType": "uint256",
          "name": "",
          "type": "uint256"
        }
      ],
      "stateMutability": "view",
      "type": "function"
    },
    {
      "inputs": [
        {
          "internalType": "address",
          "name": "newOwner",
          "type": "address"
        }
      ],
      "name": "transferOwnership",
      "outputs": [],
      "stateMutability": "nonpayable",
      "type": "function"
    },
    {
      "inputs": [
        {
          "internalType": "uint256",
          "name": "",
          "type": "uint256"
        },
        {
          "internalType": "uint256",
          "name": "",
          "type": "uint256"
        }
      ],
      "name": "vouchersByLoan",
      "outputs": [
        {
          "internalType": "address",
          "name": "wallet",
          "type": "address"
        },
        {
          "internalType": "uint256",
          "name": "stakeAmount",
          "type": "uint256"
        },
        {
          "internalType": "bool",
          "name": "hasStaked",
          "type": "bool"
        }
      ],
      "stateMutability": "view",
      "type": "function"
    },
    {
      "stateMutability": "payable",
      "type": "receive"
    }
  ],
  "bytecode": "0x60806040523480156200001157600080fd5b50604051620026cf380380620026cf8339818101604052810190620000379190620001d5565b620000576200004b6200009f60201b60201c565b620000a760201b60201c565b80600260006101000a81548173ffffffffffffffffffffffffffffffffffffffff021916908373ffffffffffffffffffffffffffffffffffffffff1602179055505062000207565b600033905090565b60008060009054906101000a900473ffffffffffffffffffffffffffffffffffffffff169050816000806101000a81548173ffffffffffffffffffffffffffffffffffffffff021916908373ffffffffffffffffffffffffffffffffffffffff1602179055508173ffffffffffffffffffffffffffffffffffffffff168173ffffffffffffffffffffffffffffffffffffffff167f8be0079c531659141344cd1fd0a4f28419497f9722a3daafe3b4186f6b6457e060405160405180910390a35050565b600080fd5b600073ffffffffffffffffffffffffffffffffffffffff82169050919050565b60006200019d8262000170565b9050919050565b620001af8162000190565b8114620001bb57600080fd5b50565b600081519050620001cf81620001a4565b92915050565b600060208284031215620001ee57620001ed6200016b565b5b6000620001fe84828501620001be565b91505092915050565b6124b880620002176000396000f3fe60806040526004361061012e5760003560e01c80634e3001b4116100ab578063a17f64761161006f578063a17f64761461043b578063a694fc3a14610464578063bd63d32814610480578063bed863ad146104bd578063da8a35a2146104fa578063f2fde38b1461052357610135565b80634e3001b4146103545780635c80cc49146103915780636d2a81eb146103d0578063715018a6146103f95780638da5cb5b1461041057610135565b80632f8899f3116100f25780632f8899f314610259578063324196b41461029657806341cb8c20146102c15780634304995f146102fe578063469addd91461032957610135565b80630c4b772e1461013a5780632009d5981461017757806320176122146101b457806324ba25ce146101f1578063275bbe9b1461022e57610135565b3661013557005b600080fd5b34801561014657600080fd5b50610161600480360381019061015c9190611925565b61054c565b60405161016e9190611961565b60405180910390f35b34801561018357600080fd5b5061019e600480360381019061019991906119da565b610564565b6040516101ab9190611961565b60405180910390f35b3480156101c057600080fd5b506101db60048036038101906101d69190611a1a565b61088f565b6040516101e89190611a7b565b60405180910390f35b3480156101fd57600080fd5b5061021860048036038101906102139190611925565b6108dd565b6040516102259190611bc0565b60405180910390f35b34801561023a57600080fd5b506102436109ca565b6040516102509190611c41565b60405180910390f35b34801561026557600080fd5b50610280600480360381019061027b9190611925565b6109f0565b60405161028d9190611961565b60405180910390f35b3480156102a257600080fd5b506102ab610a0d565b6040516102b89190611a7b565b60405180910390f35b3480156102cd57600080fd5b506102e860048036038101906102e39190611925565b610a33565b6040516102f59190611961565b60405180910390f35b34801561030a57600080fd5b50610313610a4b565b6040516103209190611961565b60405180910390f35b34801561033557600080fd5b5061033e610a51565b60405161034b9190611961565b60405180910390f35b34801561036057600080fd5b5061037b60048036038101906103769190611c88565b610a57565b6040516103889190611961565b60405180910390f35b34801561039d57600080fd5b506103b860048036038101906103b39190611a1a565b610a88565b6040516103c793929190611cd7565b60405180910390f35b3480156103dc57600080fd5b506103f760048036038101906103f29190611a1a565b610afc565b005b34801561040557600080fd5b5061040e610ea3565b005b34801561041c57600080fd5b50610425610eb7565b6040516104329190611a7b565b60405180910390f35b34801561044757600080fd5b50610462600480360381019061045d9190611d0e565b610ee0565b005b61047e60048036038101906104799190611925565b610f2c565b005b34801561048c57600080fd5b506104a760048036038101906104a29190611925565b611414565b6040516104b49190611d3b565b60405180910390f35b3480156104c957600080fd5b506104e460048036038101906104df9190611d0e565b611466565b6040516104f19190611e05565b60405180910390f35b34801561050657600080fd5b50610521600480360381019061051c9190611e8c565b6114fd565b005b34801561052f57600080fd5b5061054a60048036038101906105459190611d0e565b61165b565b005b60076020528060005260406000206000915090505481565b6000600160009054906101000a900473ffffffffffffffffffffffffffffffffffffffff1673ffffffffffffffffffffffffffffffffffffffff163373ffffffffffffffffffffffffffffffffffffffff16146105f6576040517f08c379a00000000000000000000000000000000000000000000000000000000081526004016105ed90611f5d565b60405180910390fd5b60006003600085815260200190815260200160002090506000805b82805490508110156107cc57600083828154811061063257610631611f7d565b5b906000526020600020906003020190508060020160009054906101000a900460ff1661065e57506107b9565b60008160010154905060008260020160006101000a81548160ff02191690831515021790555080846106909190611fdb565b9350600260009054906101000a900473ffffffffffffffffffffffffffffffffffffffff1673ffffffffffffffffffffffffffffffffffffffff1663dd6865e58360000160009054906101000a900473ffffffffffffffffffffffffffffffffffffffff166040518263ffffffff1660e01b81526004016107119190611a7b565b600060405180830381600087803b15801561072b57600080fd5b505af115801561073f573d6000803e3d6000fd5b505050508160000160009054906101000a900473ffffffffffffffffffffffffffffffffffffffff1673ffffffffffffffffffffffffffffffffffffffff16887fba00be99b4ba100b19f2c080160ab22c2b8f4d62027d6524c532e7578d7a43b4836040516107ae9190611961565b60405180910390a350505b80806107c49061200f565b915050610611565b5060008111156108845760008473ffffffffffffffffffffffffffffffffffffffff16826040516107fc90612088565b60006040518083038185875af1925050503d8060008114610839576040519150601f19603f3d011682016040523d82523d6000602084013e61083e565b606091505b5050905080610882576040517f08c379a0000000000000000000000000000000000000000000000000000000008152600401610879906120e9565b60405180910390fd5b505b809250505092915050565b600560205281600052604060002081815481106108ab57600080fd5b906000526020600020016000915091509054906101000a900473ffffffffffffffffffffffffffffffffffffffff1681565b606060036000838152602001908152602001600020805480602002602001604051908101604052809291908181526020016000905b828210156109bf57838290600052602060002090600302016040518060600160405290816000820160009054906101000a900473ffffffffffffffffffffffffffffffffffffffff1673ffffffffffffffffffffffffffffffffffffffff1673ffffffffffffffffffffffffffffffffffffffff168152602001600182015481526020016002820160009054906101000a900460ff16151515158152505081526020019060010190610912565b505050509050919050565b600260009054906101000a900473ffffffffffffffffffffffffffffffffffffffff1681565b600060046000838152602001908152602001600020549050919050565b600160009054906101000a900473ffffffffffffffffffffffffffffffffffffffff1681565b60046020528060005260406000206000915090505481565b610bb881565b611f4081565b60086020528160005260406000208181548110610a7357600080fd5b90600052602060002001600091509150505481565b60036020528160005260406000208181548110610aa457600080fd5b9060005260206000209060030201600091509150508060000160009054906101000a900473ffffffffffffffffffffffffffffffffffffffff16908060010154908060020160009054906101000a900460ff16905083565b600160009054906101000a900473ffffffffffffffffffffffffffffffffffffffff1673ffffffffffffffffffffffffffffffffffffffff163373ffffffffffffffffffffffffffffffffffffffff1614610b8c576040517f08c379a0000000000000000000000000000000000000000000000000000000008152600401610b8390611f5d565b60405180910390fd5b60006003600084815260200190815260200160002090506000600460008581526020019081526020016000205490506000612710610bb885610bce9190612109565b610bd8919061217a565b905060005b8380549050811015610e9b576000848281548110610bfe57610bfd611f7d565b5b906000526020600020906003020190508060020160009054906101000a900460ff16610c2a5750610e88565b6000808511610c3a576000610c56565b84826001015485610c4b9190612109565b610c55919061217a565b5b90506000818360010154610c6a9190611fdb565b905060008360020160006101000a81548160ff021916908315150217905550600260009054906101000a900473ffffffffffffffffffffffffffffffffffffffff1673ffffffffffffffffffffffffffffffffffffffff16635435031f8460000160009054906101000a900473ffffffffffffffffffffffffffffffffffffffff166040518263ffffffff1660e01b8152600401610d089190611a7b565b600060405180830381600087803b158015610d2257600080fd5b505af1158015610d36573d6000803e3d6000fd5b5050505060008360000160009054906101000a900473ffffffffffffffffffffffffffffffffffffffff1673ffffffffffffffffffffffffffffffffffffffff1682604051610d8490612088565b60006040518083038185875af1925050503d8060008114610dc1576040519150601f19603f3d011682016040523d82523d6000602084013e610dc6565b606091505b5050905080610e0a576040517f08c379a0000000000000000000000000000000000000000000000000000000008152600401610e01906121f7565b60405180910390fd5b8360000160009054906101000a900473ffffffffffffffffffffffffffffffffffffffff1673ffffffffffffffffffffffffffffffffffffffff168a7f26e3d7bc068ee0d25e9107c557d0bb7f3aca6f45dbe328cab69ee59d76addd0a866001015486604051610e7b929190612217565b60405180910390a3505050505b8080610e939061200f565b915050610bdd565b505050505050565b610eab6116de565b610eb5600061175c565b565b60008060009054906101000a900473ffffffffffffffffffffffffffffffffffffffff16905090565b610ee86116de565b80600160006101000a81548173ffffffffffffffffffffffffffffffffffffffff021916908373ffffffffffffffffffffffffffffffffffffffff16021790555050565b60003411610f6f576040517f08c379a0000000000000000000000000000000000000000000000000000000008152600401610f669061228c565b60405180910390fd5b6000806005600084815260200190815260200160002080548060200260200160405190810160405280929190818152602001828054801561100557602002820191906000526020600020905b8160009054906101000a900473ffffffffffffffffffffffffffffffffffffffff1673ffffffffffffffffffffffffffffffffffffffff1681526020019060010190808311610fbb575b5050505050905060005b8151811015611081573373ffffffffffffffffffffffffffffffffffffffff1682828151811061104257611041611f7d565b5b602002602001015173ffffffffffffffffffffffffffffffffffffffff160361106e5760019250611081565b80806110799061200f565b91505061100f565b50816110c2576040517f08c379a00000000000000000000000000000000000000000000000000000000081526004016110b9906122f8565b60405180910390fd5b60006006600085815260200190815260200160002060003373ffffffffffffffffffffffffffffffffffffffff1673ffffffffffffffffffffffffffffffffffffffff1681526020019081526020016000205414611155576040517f08c379a000000000000000000000000000000000000000000000000000000000815260040161114c90612364565b60405180910390fd5b6003600084815260200190815260200160002060405180606001604052803373ffffffffffffffffffffffffffffffffffffffff16815260200134815260200160011515815250908060018154018082558091505060019003906000526020600020906003020160009091909190915060008201518160000160006101000a81548173ffffffffffffffffffffffffffffffffffffffff021916908373ffffffffffffffffffffffffffffffffffffffff1602179055506020820151816001015560408201518160020160006101000a81548160ff021916908315150217905550505060036000848152602001908152602001600020805490506006600085815260200190815260200160002060003373ffffffffffffffffffffffffffffffffffffffff1673ffffffffffffffffffffffffffffffffffffffff16815260200190815260200160002081905550346004600085815260200190815260200160002060008282546112c69190611fdb565b92505081905550600860003373ffffffffffffffffffffffffffffffffffffffff1673ffffffffffffffffffffffffffffffffffffffff168152602001908152602001600020839080600181540180825580915050600190039060005260206000200160009091909190915055600260009054906101000a900473ffffffffffffffffffffffffffffffffffffffff1673ffffffffffffffffffffffffffffffffffffffff16630f5c12d3336040518263ffffffff1660e01b815260040161138e9190611a7b565b600060405180830381600087803b1580156113a857600080fd5b505af11580156113bc573d6000803e3d6000fd5b505050503373ffffffffffffffffffffffffffffffffffffffff16837f18dcd430020e4d4899772fd94a8b40451dc5044dfb70bc46b532eeae431c864f346040516114079190611961565b60405180910390a3505050565b600080612710611f40600760008681526020019081526020016000205461143b9190612109565b611445919061217a565b90508060046000858152602001908152602001600020541015915050919050565b6060600860008373ffffffffffffffffffffffffffffffffffffffff1673ffffffffffffffffffffffffffffffffffffffff1681526020019081526020016000208054806020026020016040519081016040528092919081815260200182805480156114f157602002820191906000526020600020905b8154815260200190600101908083116114dd575b50505050509050919050565b600160009054906101000a900473ffffffffffffffffffffffffffffffffffffffff1673ffffffffffffffffffffffffffffffffffffffff163373ffffffffffffffffffffffffffffffffffffffff161461158d576040517f08c379a000000000000000000000000000000000000000000000000000000000815260040161158490611f5d565b60405180910390fd5b82600760008681526020019081526020016000208190555081816005600087815260200190815260200160002091906115c7929190611828565b5060005b82829050811015611654578282828181106115e9576115e8611f7d565b5b90506020020160208101906115fe9190611d0e565b73ffffffffffffffffffffffffffffffffffffffff16857fdccef2b8b3a5e70aca8000b0c3e6de60e2fffce8c638a1e2e1b900616a7bdf3360405160405180910390a3808061164c9061200f565b9150506115cb565b5050505050565b6116636116de565b600073ffffffffffffffffffffffffffffffffffffffff168173ffffffffffffffffffffffffffffffffffffffff16036116d2576040517f08c379a00000000000000000000000000000000000000000000000000000000081526004016116c9906123f6565b60405180910390fd5b6116db8161175c565b50565b6116e6611820565b73ffffffffffffffffffffffffffffffffffffffff16611704610eb7565b73ffffffffffffffffffffffffffffffffffffffff161461175a576040517f08c379a000000000000000000000000000000000000000000000000000000000815260040161175190612462565b60405180910390fd5b565b60008060009054906101000a900473ffffffffffffffffffffffffffffffffffffffff169050816000806101000a81548173ffffffffffffffffffffffffffffffffffffffff021916908373ffffffffffffffffffffffffffffffffffffffff1602179055508173ffffffffffffffffffffffffffffffffffffffff168173ffffffffffffffffffffffffffffffffffffffff167f8be0079c531659141344cd1fd0a4f28419497f9722a3daafe3b4186f6b6457e060405160405180910390a35050565b600033905090565b8280548282559060005260206000209081019282156118b7579160200282015b828111156118b657823573ffffffffffffffffffffffffffffffffffffffff168260006101000a81548173ffffffffffffffffffffffffffffffffffffffff021916908373ffffffffffffffffffffffffffffffffffffffff16021790555091602001919060010190611848565b5b5090506118c491906118c8565b5090565b5b808211156118e15760008160009055506001016118c9565b5090565b600080fd5b600080fd5b6000819050919050565b611902816118ef565b811461190d57600080fd5b50565b60008135905061191f816118f9565b92915050565b60006020828403121561193b5761193a6118e5565b5b600061194984828501611910565b91505092915050565b61195b816118ef565b82525050565b60006020820190506119766000830184611952565b92915050565b600073ffffffffffffffffffffffffffffffffffffffff82169050919050565b60006119a78261197c565b9050919050565b6119b78161199c565b81146119c257600080fd5b50565b6000813590506119d4816119ae565b92915050565b600080604083850312156119f1576119f06118e5565b5b60006119ff85828601611910565b9250506020611a10858286016119c5565b9150509250929050565b60008060408385031215611a3157611a306118e5565b5b6000611a3f85828601611910565b9250506020611a5085828601611910565b9150509250929050565b6000611a658261197c565b9050919050565b611a7581611a5a565b82525050565b6000602082019050611a906000830184611a6c565b92915050565b600081519050919050565b600082825260208201905092915050565b6000819050602082019050919050565b611acb81611a5a565b82525050565b611ada816118ef565b82525050565b60008115159050919050565b611af581611ae0565b82525050565b606082016000820151611b116000850182611ac2565b506020820151611b246020850182611ad1565b506040820151611b376040850182611aec565b50505050565b6000611b498383611afb565b60608301905092915050565b6000602082019050919050565b6000611b6d82611a96565b611b778185611aa1565b9350611b8283611ab2565b8060005b83811015611bb3578151611b9a8882611b3d565b9750611ba583611b55565b925050600181019050611b86565b5085935050505092915050565b60006020820190508181036000830152611bda8184611b62565b905092915050565b6000819050919050565b6000611c07611c02611bfd8461197c565b611be2565b61197c565b9050919050565b6000611c1982611bec565b9050919050565b6000611c2b82611c0e565b9050919050565b611c3b81611c20565b82525050565b6000602082019050611c566000830184611c32565b92915050565b611c6581611a5a565b8114611c7057600080fd5b50565b600081359050611c8281611c5c565b92915050565b60008060408385031215611c9f57611c9e6118e5565b5b6000611cad85828601611c73565b9250506020611cbe85828601611910565b9150509250929050565b611cd181611ae0565b82525050565b6000606082019050611cec6000830186611a6c565b611cf96020830185611952565b611d066040830184611cc8565b949350505050565b600060208284031215611d2457611d236118e5565b5b6000611d3284828501611c73565b91505092915050565b6000602082019050611d506000830184611cc8565b92915050565b600081519050919050565b600082825260208201905092915050565b6000819050602082019050919050565b6000611d8e8383611ad1565b60208301905092915050565b6000602082019050919050565b6000611db282611d56565b611dbc8185611d61565b9350611dc783611d72565b8060005b83811015611df8578151611ddf8882611d82565b9750611dea83611d9a565b925050600181019050611dcb565b5085935050505092915050565b60006020820190508181036000830152611e1f8184611da7565b905092915050565b600080fd5b600080fd5b600080fd5b60008083601f840112611e4c57611e4b611e27565b5b8235905067ffffffffffffffff811115611e6957611e68611e2c565b5b602083019150836020820283011115611e8557611e84611e31565b5b9250929050565b60008060008060608587031215611ea657611ea56118e5565b5b6000611eb487828801611910565b9450506020611ec587828801611910565b935050604085013567ffffffffffffffff811115611ee657611ee56118ea565b5b611ef287828801611e36565b925092505092959194509250565b600082825260208201905092915050565b7f4f6e6c79204c6f616e5265717565737400000000000000000000000000000000600082015250565b6000611f47601083611f00565b9150611f5282611f11565b602082019050919050565b60006020820190508181036000830152611f7681611f3a565b9050919050565b7f4e487b7100000000000000000000000000000000000000000000000000000000600052603260045260246000fd5b7f4e487b7100000000000000000000000000000000000000000000000000000000600052601160045260246000fd5b6000611fe6826118ef565b9150611ff1836118ef565b925082820190508082111561200957612008611fac565b5b92915050565b600061201a826118ef565b91507fffffffffffffffffffffffffffffffffffffffffffffffffffffffffffffffff820361204c5761204b611fac565b5b600182019050919050565b600081905092915050565b50565b6000612072600083612057565b915061207d82612062565b600082019050919050565b600061209382612065565b9150819050919050565b7f536c617368207472616e73666572206661696c65640000000000000000000000600082015250565b60006120d3601583611f00565b91506120de8261209d565b602082019050919050565b60006020820190508181036000830152612102816120c6565b9050919050565b6000612114826118ef565b915061211f836118ef565b925082820261212d816118ef565b9150828204841483151761214457612143611fac565b5b5092915050565b7f4e487b7100000000000000000000000000000000000000000000000000000000600052601260045260246000fd5b6000612185826118ef565b9150612190836118ef565b9250826121a05761219f61214b565b5b828204905092915050565b7f5472616e73666572206661696c65640000000000000000000000000000000000600082015250565b60006121e1600f83611f00565b91506121ec826121ab565b602082019050919050565b60006020820190508181036000830152612210816121d4565b9050919050565b600060408201905061222c6000830185611952565b6122396020830184611952565b9392505050565b7f4d7573742073656e642045544800000000000000000000000000000000000000600082015250565b6000612276600d83611f00565b915061228182612240565b602082019050919050565b600060208201905081810360008301526122a581612269565b9050919050565b7f4e6f7420696e766974656420617320766f756368657200000000000000000000600082015250565b60006122e2601683611f00565b91506122ed826122ac565b602082019050919050565b60006020820190508181036000830152612311816122d5565b9050919050565b7f416c7265616479207374616b6564000000000000000000000000000000000000600082015250565b600061234e600e83611f00565b915061235982612318565b602082019050919050565b6000602082019050818103600083015261237d81612341565b9050919050565b7f4f776e61626c653a206e6577206f776e657220697320746865207a65726f206160008201527f6464726573730000000000000000000000000000000000000000000000000000602082015250565b60006123e0602683611f00565b91506123eb82612384565b604082019050919050565b6000602082019050818103600083015261240f816123d3565b9050919050565b7f4f776e61626c653a2063616c6c6572206973206e6f7420746865206f776e6572600082015250565b600061244c602083611f00565b915061245782612416565b602082019050919050565b6000602082019050818103600083015261247b8161243f565b905091905056fea2646970667358221220d92e60e8dbaebdadf9ed99275d71e825f55ef94a755b1d1a9e2f0bf4b558ed8f64736f6c63430008140033",
  "linkReferences": {},
  "deployedLinkReferences": {}
}